{"abi":[{"type":"constructor","inputs":[{"name":"_organizer","type":"address","internalType":"address"},{"name":"_concertId","type":"uint256","internalType":"uint256"},{"name":"_ticketType","type":"uint256","internalType":"uint256"},{"name":"_typeName","type":"string","internalType":"string"},{"name":"_name","type":"string","internalType":"string"},{"name":"_price","type":"uint256","internalType":"uint256"},{"name":"_url","type":"string","internalType":"string"},{"name":"_ticketCount","type":"uint256","internalType":"uint256"},{"name":"_ddl","type":"uint256","internalType":"uint256"},{"name":"_ticket","type":"address","internalType":"contract ConcertTicketNFT"}],"stateMutability":"nonpayable"},{"type":"function","name":"claimFunds","inputs":[],"outputs":[],"stateMutability":"nonpayable"},{"type":"function","name":"deposit","inputs":[],"outputs":[],"stateMutability":"payable"},{"type":"function","name":"deposits","inputs":[{"name":"","type":"address","internalType":"address"}],"outputs":[{"name":"","type":"uint256","internalType":"uint256"}],"stateMutability":"view"},{"type":"function","name":"getAllBuyer","inputs":[],"outputs":[{"name":"","type":"address[]","internalType":"address[]"}],"stateMutability":"view"},{"type":"function","name":"getTicketPrice","inputs":[],"outputs":[{"name":"","type":"uint256","internalType":"uint256"}],"stateMutability":"view"},{"type":"function","name":"lastRequestId","inputs":[],"outputs":[{"name":"","type":"uint256","internalType":"uint256"}],"stateMutability":"view"},{"type":"function","name":"owner","inputs":[],"outputs":[{"name":"","type":"address","internalType":"address"}],"stateMutability":"view"},{"type":"function","name":"rawFulfillRandomWords","inputs":[{"name":"_requestId","type":"uint256","internalType":"uint256"},{"name":"_randomWords","type":"uint256[]","internalType":"uint256[]"}],"outputs":[],"stateMutability":"nonpayable"},{"type":"function","name":"refund","inputs":[{"name":"participant","type":"address","internalType":"address"}],"outputs":[],"stateMutability":"nonpayable"},{"type":"function","name":"renounceOwnership","inputs":[],"outputs":[],"stateMutability":"nonpayable"},{"type":"function","name":"requestIds","inputs":[{"name":"","type":"uint256","internalType":"uint256"}],"outputs":[{"name":"","type":"uint256","internalType":"uint256"}],"stateMutability":"view"},{"type":"function","name":"requestRandomWords","inputs":[],"outputs":[{"name":"requestId","type":"uint256","internalType":"uint256"}],"stateMutability":"nonpayable"},{"type":"function","name":"s_requests","inputs":[{"name":"","type":"uint256","internalType":"uint256"}],"outputs":[{"name":"paid","type":"uint256","internalType":"uint256"},{"name":"fulfilled","type":"bool","internalType":"bool"}],"stateMutability":"view"},{"type":"function","name":"transferOwnership","inputs":[{"name":"newOwner","type":"address","internalType":"address"}],"outputs":[],"stateMutability":"nonpayable"},{"type":"event","name":"CHainlinkVrf__RequestFulfilled","inputs":[{"name":"requestId","type":"uint256","indexed":false,"internalType":"uint256"},{"name":"randomWords","type":"uint256[]","indexed":false,"internalType":"uint256[]"},{"name":"payment","type":"uint256","indexed":false,"internalType":"uint256"}],"anonymous":false},{"type":"event","name":"ChainlinkVrf__RequestSent","inputs":[{"name":"requestId","type":"uint256","indexed":false,"internalType":"uint256"},{"name":"numWords","type":"uint32","indexed":false,"internalType":"uint32"}],"anonymous":false},{"type":"event","name":"LotteryEscrow__ClaimedFunds","inputs":[{"name":"concertId","type":"uint256","indexed":true,"internalType":"uint256"},{"name":"ticketType","type":"uint256","indexed":true,"internalType":"uint256"},{"name":"organizer","type":"address","indexed":false,"internalType":"address"},{"name":"money","type":"uint256","indexed":false,"internalType":"uint256"}],"anonymous":false},{"type":"event","name":"LotteryEscrow__Deposited","inputs":[{"name":"concertId","type":"uint256","indexed":true,"internalType":"uint256"},{"name":"ticketType","type":"uint256","indexed":true,"internalType":"uint256"},{"name":"buyer","type":"address","indexed":false,"internalType":"address"},{"name":"money","type":"uint256","indexed":false,"internalType":"uint256"}],"anonymous":false},{"type":"event","name":"LotteryEscrow__NonWinner","inputs":[{"name":"concertId","type":"uint256","indexed":true,"internalType":"uint256"},{"name":"ticketType","type":"uint256","indexed":true,"internalType":"uint256"},{"name":"nonWinner","type":"address","indexed":false,"internalType":"address"},{"name":"money","type":"uint256","indexed":false,"internalType":"uint256"}],"anonymous":false},{"type":"event","name":"LotteryEscrow__Refunded","inputs":[{"name":"concertId","type":"uint256","indexed":true,"internalType":"uint256"},{"name":"ticketType","type":"uint256","indexed":true,"internalType":"uint256"},{"name":"buyer","type":"address","indexed":false,"internalType":"address"},{"name":"money","type":"uint256","indexed":false,"internalType":"uint256"}],"anonymous":false},{"type":"event","name":"LotteryEscrow__Winner","inputs":[{"name":"concertId","type":"uint256","indexed":true,"internalType":"uint256"},{"name":"ticketType","type":"uint256","indexed":true,"internalType":"uint256"},{"name":"winner","type":"address","indexed":false,"internalType":"address"}],"anonymous":false},{"type":"event","name":"OwnershipTransferred","inputs":[{"name":"previousOwner","type":"address","indexed":true,"internalType":"address"},{"name":"newOwner","type":"address","indexed":true,"internalType":"address"}],"anonymous":false},{"type":"error","name":"DepositTimeOut","inputs":[]},{"type":"error","name":"OwnableInvalidOwner","inputs":[{"name":"owner","type":"address","internalType":"address"}]},{"type":"error","name":"OwnableUnauthorizedAccount","inputs":[{"name":"account","type":"address","internalType":"address"}]}],"bytecode":{"object":"0x610140604052600980546001600160a01b031990811673779877a7b0d9e8603169ddbd7836e478b462478917909155600a805490911673ab18414cd93297b0d12ac29e63ca20f515b3db46179055600d805466010003000186a06001600160501b03199091161790553480156200007557600080fd5b5060405162001c6e38038062001c6e8339810160408190526200009891620002a1565b600954600a546001600160a01b0391821691908116908c908116620000d757604051631e4fbdf760e01b81526000600482015260240160405180910390fd5b620000e2816200016f565b506001600160a01b03918216608052811660a0528a1660c05260e089905261010088905260016200011488826200041b565b5060026200012387826200041b565b5061012085905260036200013885826200041b565b50600492909255600555600780546001600160a01b0319166001600160a01b0390921691909117905550620004e795505050505050565b600080546001600160a01b038381166001600160a01b0319831681178455604051919092169283917f8be0079c531659141344cd1fd0a4f28419497f9722a3daafe3b4186f6b6457e09190a35050565b80516001600160a01b0381168114620001d757600080fd5b919050565b634e487b7160e01b600052604160045260246000fd5b600082601f8301126200020457600080fd5b81516001600160401b0380821115620002215762000221620001dc565b604051601f8301601f19908116603f011681019082821181831017156200024c576200024c620001dc565b816040528381526020925086838588010111156200026957600080fd5b600091505b838210156200028d57858201830151818301840152908201906200026e565b600093810190920192909252949350505050565b6000806000806000806000806000806101408b8d031215620002c257600080fd5b620002cd8b620001bf565b60208c015160408d015160608e0151929c50909a5098506001600160401b0380821115620002fa57600080fd5b620003088e838f01620001f2565b985060808d01519150808211156200031f57600080fd5b6200032d8e838f01620001f2565b975060a08d0151965060c08d01519150808211156200034b57600080fd5b506200035a8d828e01620001f2565b94505060e08b015192506101008b015191506200037b6101208c01620001bf565b90509295989b9194979a5092959850565b600181811c90821680620003a157607f821691505b602082108103620003c257634e487b7160e01b600052602260045260246000fd5b50919050565b601f8211156200041657600081815260208120601f850160051c81016020861015620003f15750805b601f850160051c820191505b818110156200041257828155600101620003fd565b5050505b505050565b81516001600160401b03811115620004375762000437620001dc565b6200044f816200044884546200038c565b84620003c8565b602080601f8311600181146200048757600084156200046e5750858301515b600019600386901b1c1916600185901b17855562000412565b600085815260208120601f198616915b82811015620004b85788860151825594840194600190910190840162000497565b5085821015620004d75787850151600019600388901b60f8161c191681555b5050505050600190811b01905550565b60805160a05160c05160e05161010051610120516116dc620005926000396000818161015b0152818161051d0152610dd3015260008181610486015281816106270152818161084d01528181610b7b0152610c870152600081816104a8015281816106490152818161086f01528181610b9e0152610c61015260008181610403015261045b0152600081816102d501528181611033015261113c0152600061100901526116dc6000f3fe6080604052600436106100dd5760003560e01c8063ac3077731161007f578063f2fde38b11610059578063f2fde38b14610247578063fa89401a14610267578063fc2a88c314610287578063fc7e286d1461029d57600080fd5b8063ac30777314610215578063d0e30db01461022a578063e0c862891461023257600080fd5b806387bb7ae0116100bb57806387bb7ae01461014c5780638da5cb5b1461017f578063a168fa89146101a7578063a1bdda52146101f357600080fd5b80631fe543e3146100e2578063715018a6146101045780638796ba8c14610119575b600080fd5b3480156100ee57600080fd5b506101026100fd36600461123a565b6102ca565b005b34801561011057600080fd5b50610102610355565b34801561012557600080fd5b50610139610134366004611304565b610369565b6040519081526020015b60405180910390f35b34801561015857600080fd5b507f0000000000000000000000000000000000000000000000000000000000000000610139565b34801561018b57600080fd5b506000546040516001600160a01b039091168152602001610143565b3480156101b357600080fd5b506101de6101c2366004611304565b600e602052600090815260409020805460019091015460ff1682565b60408051928352901515602083015201610143565b3480156101ff57600080fd5b5061020861038a565b604051610143919061131d565b34801561022157600080fd5b506101026103ec565b6101026104f7565b34801561023e57600080fd5b50610139610691565b34801561025357600080fd5b5061010261026236600461136a565b610754565b34801561027357600080fd5b5061010261028236600461136a565b610792565b34801561029357600080fd5b50610139600c5481565b3480156102a957600080fd5b506101396102b836600461136a565b60086020526000908152604090205481565b336001600160a01b037f000000000000000000000000000000000000000000000000000000000000000016146103475760405162461bcd60e51b815260206004820152601f60248201527f6f6e6c792056524620563220777261707065722063616e2066756c66696c6c0060448201526064015b60405180910390fd5b61035182826108be565b5050565b61035d610f66565b6103676000610f93565b565b600b818154811061037957600080fd5b600091825260209091200154905081565b606060068054806020026020016040519081016040528092919081815260200182805480156103e257602002820191906000526020600020905b81546001600160a01b031681526001909101906020018083116103c4575b5050505050905090565b6103f4610f66565b60405147906001600160a01b037f0000000000000000000000000000000000000000000000000000000000000000169082156108fc029083906000818181858888f1935050505015801561044c573d6000803e3d6000fd5b50604080516001600160a01b037f0000000000000000000000000000000000000000000000000000000000000000168152602081018390527f0000000000000000000000000000000000000000000000000000000000000000917f0000000000000000000000000000000000000000000000000000000000000000917f3ea2c8a0a1289b70ff17a595b1415b71f7c8457d8beb38bce6c0a484f8afd4cf91015b60405180910390a350565b6005548042111561051b5760405163043d07a360e41b815260040160405180910390fd5b7f0000000000000000000000000000000000000000000000000000000000000000341161059b5760405162461bcd60e51b815260206004820152602860248201527f4465706f736974206d7573742062652067726561746572207468616e207469636044820152676b6574507269636560c01b606482015260840161033e565b3360009081526008602052604081205490036105f457600680546001810182556000919091527ff652222313e28459528d920b65115c16c04f3efc82aaedc97be59f3f377c0d3f0180546001600160a01b031916331790555b33600090815260086020526040812080543492906106139084906113b0565b9091555050604080513381523460208201527f0000000000000000000000000000000000000000000000000000000000000000917f0000000000000000000000000000000000000000000000000000000000000000917fbb5116f7c5baded95ebecb639657a3ca3eb8ce830fc866168555f40e9838aa9591016104ec565b600061069b610f66565b600d546106c99063ffffffff8082169161ffff64010000000082041691660100000000000090910416610fe3565b600b80546001810182556000919091527f0175b7a638427703f0dbe7bb9bbf987a2551717b34e79f33b5b1008d1fa01db901819055600c819055600d5460408051838152660100000000000090920463ffffffff1660208301529192507f4461b2777889df5916f85d2cecf8eafcc1bb8f0ecee41ddca4b9497a07ad4c96910160405180910390a190565b61075c610f66565b6001600160a01b03811661078657604051631e4fbdf760e01b81526000600482015260240161033e565b61078f81610f93565b50565b6001600160a01b038116600090815260086020526040902054806107ef5760405162461bcd60e51b8152602060048201526014602482015273139bc819195c1bdcda5d081d1bc81c99599d5b9960621b604482015260640161033e565b6001600160a01b0382166000818152600860205260408082208290555183156108fc0291849190818181858888f19350505050158015610833573d6000803e3d6000fd5b50604080516001600160a01b0384168152602081018390527f0000000000000000000000000000000000000000000000000000000000000000917f0000000000000000000000000000000000000000000000000000000000000000917f5760598089661e85377df061128b09cf866f4ca83b8bdb788ee2cac6b312da94910160405180910390a35050565b600654600454811115610c01576000838152600e602052604090205461091a5760405162461bcd60e51b81526020600482015260116024820152701c995c5d595cdd081b9bdd08199bdd5b99607a1b604482015260640161033e565b6000838152600e602090815260409091206001818101805460ff19169091179055835161094f926002909201918501906111c4565b506000838152600e6020526040908190205490517f995710b7ed8be2dbebb5e6c5a678b135a6b229b37bb79c777d6cd952258b95af9161099291869186916113c9565b60405180910390a160005b6109a8600183611420565b811015610ac85760006109bb8284611420565b846000815181106109ce576109ce611433565b60200260200101516109e09190611449565b6109ea90836113b0565b9050600681815481106109ff576109ff611433565b600091825260209091200154600680546001600160a01b039092169184908110610a2b57610a2b611433565b600091825260209091200154600680546001600160a01b039092169185908110610a5757610a57611433565b90600052602060002001600060068581548110610a7657610a76611433565b600091825260209091200180546001600160a01b039485166001600160a01b031990911617905581549383166101009190910a9081029202199092161790555080610ac08161146b565b91505061099d565b506004545b81811015610bff57600060068281548110610aea57610aea611433565b6000918252602080832091909101546001600160a01b03168083526008909152604091829020549151637d44a00d60e11b815260048101829052909250309063fa89401a90602401600060405180830381600087803b158015610b4c57600080fd5b505af1158015610b60573d6000803e3d6000fd5b5050604080516001600160a01b0386168152602081018590527f000000000000000000000000000000000000000000000000000000000000000093507f000000000000000000000000000000000000000000000000000000000000000092507fe7d940172a728ff1d3be17ee88351c67291e24ec6cfa5ec2b4635fca5e1addd2910160405180910390a350508080610bf79061146b565b915050610acd565b505b60005b60045481108015610c1457508181105b15610f6057600060068281548110610c2e57610c2e611433565b60009182526020822001546001600160a01b03169150610c4f8360016113b0565b905060006040518061014001604052807f000000000000000000000000000000000000000000000000000000000000000081526020017f0000000000000000000000000000000000000000000000000000000000000000815260200160018054610cb890611484565b80601f0160208091040260200160405190810160405280929190818152602001828054610ce490611484565b8015610d315780601f10610d0657610100808354040283529160200191610d31565b820191906000526020600020905b815481529060010190602001808311610d1457829003601f168201915b5050505050815260200183815260200160028054610d4e90611484565b80601f0160208091040260200160405190810160405280929190818152602001828054610d7a90611484565b8015610dc75780601f10610d9c57610100808354040283529160200191610dc7565b820191906000526020600020905b815481529060010190602001808311610daa57829003601f168201915b505050505081526020017f0000000000000000000000000000000000000000000000000000000000000000815260200160038054610e0490611484565b80601f0160208091040260200160405190810160405280929190818152602001828054610e3090611484565b8015610e7d5780601f10610e5257610100808354040283529160200191610e7d565b820191906000526020600020905b815481529060010190602001808311610e6057829003601f168201915b50505091835250506001600160a01b0385166020808301919091526000604080840182905280518281529283019052606090920191610ee4565b6040805160608101825260008082526020808301829052928201528252600019909201910181610eb75790505b5090526007546040516319e006e960e31b81529192506001600160a01b03169063cf00374890610f18908490600401611561565b600060405180830381600087803b158015610f3257600080fd5b505af1158015610f46573d6000803e3d6000fd5b505050505050508080610f589061146b565b915050610c04565b50505050565b6000546001600160a01b031633146103675760405163118cdaa760e01b815233600482015260240161033e565b600080546001600160a01b038381166001600160a01b0319831681178455604051919092169283917f8be0079c531659141344cd1fd0a4f28419497f9722a3daafe3b4186f6b6457e09190a35050565b6040516310c1b4d560e21b815263ffffffff841660048201526000906001600160a01b037f0000000000000000000000000000000000000000000000000000000000000000811691634000aea0917f00000000000000000000000000000000000000000000000000000000000000009190821690634306d35490602401602060405180830381865afa15801561107d573d6000803e3d6000fd5b505050506040513d601f19601f820116820180604052508101906110a1919061163b565b6040805163ffffffff808b16602083015261ffff8a169282019290925290871660608201526080016040516020818303038152906040526040518463ffffffff1660e01b81526004016110f693929190611654565b6020604051808303816000875af1158015611115573d6000803e3d6000fd5b505050506040513d601f19601f820116820180604052508101906111399190611684565b507f00000000000000000000000000000000000000000000000000000000000000006001600160a01b031663fc2a88c36040518163ffffffff1660e01b8152600401602060405180830381865afa158015611198573d6000803e3d6000fd5b505050506040513d601f19601f820116820180604052508101906111bc919061163b565b949350505050565b8280548282559060005260206000209081019282156111ff579160200282015b828111156111ff5782518255916020019190600101906111e4565b5061120b92915061120f565b5090565b5b8082111561120b5760008155600101611210565b634e487b7160e01b600052604160045260246000fd5b6000806040838503121561124d57600080fd5b8235915060208084013567ffffffffffffffff8082111561126d57600080fd5b818601915086601f83011261128157600080fd5b81358181111561129357611293611224565b8060051b604051601f19603f830116810181811085821117156112b8576112b8611224565b6040529182528482019250838101850191898311156112d657600080fd5b938501935b828510156112f4578435845293850193928501926112db565b8096505050505050509250929050565b60006020828403121561131657600080fd5b5035919050565b6020808252825182820181905260009190848201906040850190845b8181101561135e5783516001600160a01b031683529284019291840191600101611339565b50909695505050505050565b60006020828403121561137c57600080fd5b81356001600160a01b038116811461139357600080fd5b9392505050565b634e487b7160e01b600052601160045260246000fd5b808201808211156113c3576113c361139a565b92915050565b6000606082018583526020606081850152818651808452608086019150828801935060005b8181101561140a578451835293830193918301916001016113ee565b5050809350505050826040830152949350505050565b818103818111156113c3576113c361139a565b634e487b7160e01b600052603260045260246000fd5b60008261146657634e487b7160e01b600052601260045260246000fd5b500690565b60006001820161147d5761147d61139a565b5060010190565b600181811c9082168061149857607f821691505b6020821081036114b857634e487b7160e01b600052602260045260246000fd5b50919050565b6000815180845260005b818110156114e4576020818501810151868301820152016114c8565b506000602082860101526020601f19601f83011685010191505092915050565b600081518084526020808501945080840160005b8381101561155657815180516001600160a01b0390811689528482015116848901526040908101519088015260609096019590820190600101611518565b509495945050505050565b602081528151602082015260208201516040820152600060408301516101408060608501526115946101608501836114be565b9150606085015160808501526080850151601f19808685030160a08701526115bc84836114be565b935060a087015160c087015260c08701519150808685030160e08701526115e384836114be565b935060e08701519150610100611603818801846001600160a01b03169052565b87015191506101206116188782018415159052565b8701518685039091018387015290506116318382611504565b9695505050505050565b60006020828403121561164d57600080fd5b5051919050565b60018060a01b038416815282602082015260606040820152600061167b60608301846114be565b95945050505050565b60006020828403121561169657600080fd5b8151801515811461139357600080fdfea2646970667358221220e5e75e88b80f34644cc2daa6d6e5afabf50146806a2f232e56084409261fedcd64736f6c63430008140033","linkReferences":{}},"methodIdentifiers":{"claimFunds()":"ac307773","deposit()":"d0e30db0","deposits(address)":"fc7e286d","getAllBuyer()":"a1bdda52","getTicketPrice()":"87bb7ae0","lastRequestId()":"fc2a88c3","owner()":"8da5cb5b","rawFulfillRandomWords(uint256,uint256[])":"1fe543e3","refund(address)":"fa89401a","renounceOwnership()":"715018a6","requestIds(uint256)":"8796ba8c","requestRandomWords()":"e0c86289","s_requests(uint256)":"a168fa89","transferOwnership(address)":"f2fde38b"},"id":35}