{"abi":[{"type":"function","name":"createEscrow","inputs":[{"name":"_organizer","type":"address","internalType":"address"},{"name":"_concertId","type":"uint256","internalType":"uint256"},{"name":"_ticketType","type":"uint256","internalType":"uint256"},{"name":"_typeName","type":"string","internalType":"string"},{"name":"_name","type":"string","internalType":"string"},{"name":"_price","type":"uint256","internalType":"uint256"},{"name":"_url","type":"string","internalType":"string"},{"name":"_ticketCount","type":"uint256","internalType":"uint256"},{"name":"_ddl","type":"uint256","internalType":"uint256"}],"outputs":[{"name":"escrowAddress","type":"address","internalType":"address"},{"name":"ticketAddress","type":"address","internalType":"address"}],"stateMutability":"nonpayable"},{"type":"function","name":"escrows","inputs":[{"name":"ticketType","type":"uint256","internalType":"uint256"}],"outputs":[{"name":"escrow","type":"address","internalType":"address"}],"stateMutability":"view"},{"type":"function","name":"escrowsMapTickets","inputs":[{"name":"escrow","type":"address","internalType":"address"}],"outputs":[{"name":"ticket","type":"address","internalType":"address"}],"stateMutability":"view"},{"type":"function","name":"getEscrowAddressByTicketType","inputs":[{"name":"ticketType","type":"uint256","internalType":"uint256"}],"outputs":[{"name":"","type":"address","internalType":"address"}],"stateMutability":"view"},{"type":"event","name":"EscrowCreated","inputs":[{"name":"concertId","type":"uint256","indexed":true,"internalType":"uint256"},{"name":"ticketType","type":"uint256","indexed":true,"internalType":"uint256"},{"name":"escrowAddress","type":"address","indexed":false,"internalType":"address"},{"name":"ticketAddress","type":"address","indexed":false,"internalType":"address"}],"anonymous":false},{"type":"error","name":"TicketTypeAlreadyExists","inputs":[]}],"bytecode":{"object":"0x608060405234801561001057600080fd5b50613ce0806100206000396000f3fe60806040523480156200001157600080fd5b5060043610620000525760003560e01c8063012f52ee14620000575780637f22a12314620000a057806397fc63d114620000cc578063bb9faf661462000104575b600080fd5b6200008362000068366004620002af565b6000602081905290815260409020546001600160a01b031681565b6040516001600160a01b0390911681526020015b60405180910390f35b62000083620000b1366004620002e6565b6001602052600090815260409020546001600160a01b031681565b620000e3620000dd366004620003b6565b62000130565b604080516001600160a01b0393841681529290911660208301520162000097565b6200008362000115366004620002af565b6000908152602081905260409020546001600160a01b031690565b600087815260208190526040812054819089906001600160a01b0316156200016b5760405163bc23d57f60e01b815260040160405180910390fd5b6000888a6040516200017d9062000293565b6200018a929190620004d4565b604051809103906000f080158015620001a7573d6000803e3d6000fd5b50905060008d8d8d8d8d8d8d8d8d8a604051620001c490620002a1565b620001d99a9998979695949392919062000506565b604051809103906000f080158015620001f6573d6000803e3d6000fd5b5060008d81526020818152604080832080546001600160a01b038681166001600160a01b0319928316811790935582865260018552948390208054958916959091168517905581519081529182019290925291965092945084928692508d918f917fb0fa44dfa3cb5c65027b74c1ad128e8c4a851946eacdcf83e8223870c139ce70910160405180910390a3505050995099975050505050505050565b611aac806200059183390190565b611c6e806200203d83390190565b600060208284031215620002c257600080fd5b5035919050565b80356001600160a01b0381168114620002e157600080fd5b919050565b600060208284031215620002f957600080fd5b6200030482620002c9565b9392505050565b634e487b7160e01b600052604160045260246000fd5b600082601f8301126200033357600080fd5b813567ffffffffffffffff808211156200035157620003516200030b565b604051601f8301601f19908116603f011681019082821181831017156200037c576200037c6200030b565b816040528381528660208588010111156200039657600080fd5b836020870160208301376000602085830101528094505050505092915050565b60008060008060008060008060006101208a8c031215620003d657600080fd5b620003e18a620002c9565b985060208a0135975060408a0135965060608a013567ffffffffffffffff808211156200040d57600080fd5b6200041b8d838e0162000321565b975060808c01359150808211156200043257600080fd5b620004408d838e0162000321565b965060a08c0135955060c08c01359150808211156200045e57600080fd5b506200046d8c828d0162000321565b93505060e08a013591506101008a013590509295985092959850929598565b6000815180845260005b81811015620004b45760208185018101518683018201520162000496565b506000602082860101526020601f19601f83011685010191505092915050565b604081526000620004e960408301856200048c565b8281036020840152620004fd81856200048c565b95945050505050565b600061014060018060a01b03808e1684528c60208501528b6040850152816060850152620005378285018c6200048c565b915083820360808501526200054d828b6200048c565b91508860a085015283820360c08501526200056982896200048c565b60e0850197909752610100840195909552505091166101209091015297965050505050505056fe60806040523480156200001157600080fd5b5060405162001aac38038062001aac8339810160408190526200003491620001b1565b3382826000620000458382620002aa565b506001620000548282620002aa565b5050506001600160a01b0381166200008657604051631e4fbdf760e01b81526000600482015260240160405180910390fd5b62000091816200009a565b50505062000376565b600680546001600160a01b038381166001600160a01b0319831681179093556040519116919082907f8be0079c531659141344cd1fd0a4f28419497f9722a3daafe3b4186f6b6457e090600090a35050565b634e487b7160e01b600052604160045260246000fd5b600082601f8301126200011457600080fd5b81516001600160401b0380821115620001315762000131620000ec565b604051601f8301601f19908116603f011681019082821181831017156200015c576200015c620000ec565b816040528381526020925086838588010111156200017957600080fd5b600091505b838210156200019d57858201830151818301840152908201906200017e565b600093810190920192909252949350505050565b60008060408385031215620001c557600080fd5b82516001600160401b0380821115620001dd57600080fd5b620001eb8683870162000102565b935060208501519150808211156200020257600080fd5b50620002118582860162000102565b9150509250929050565b600181811c908216806200023057607f821691505b6020821081036200025157634e487b7160e01b600052602260045260246000fd5b50919050565b601f821115620002a557600081815260208120601f850160051c81016020861015620002805750805b601f850160051c820191505b81811015620002a1578281556001016200028c565b5050505b505050565b81516001600160401b03811115620002c657620002c6620000ec565b620002de81620002d784546200021b565b8462000257565b602080601f831160018114620003165760008415620002fd5750858301515b600019600386901b1c1916600185901b178555620002a1565b600085815260208120601f198616915b82811015620003475788860151825594840194600190910190840162000326565b5085821015620003665787850151600019600388901b60f8161c191681555b5050505050600190811b01905550565b61172680620003866000396000f3fe608060405234801561001057600080fd5b50600436106101165760003560e01c8063715018a6116100a2578063b88d4fde11610071578063b88d4fde1461024e578063c87b56dd14610261578063cf00374814610274578063e985e9c514610287578063f2fde38b1461029a57600080fd5b8063715018a61461021a5780638da5cb5b1461022257806395d89b4114610233578063a22cb4651461023b57600080fd5b80630bc5c3f5116100e95780630bc5c3f51461019857806323b872dd146101c057806342842e0e146101d35780636352211e146101e657806370a08231146101f957600080fd5b806301ffc9a71461011b57806306fdde0314610143578063081812fc14610158578063095ea7b314610183575b600080fd5b61012e610129366004611064565b6102ad565b60405190151581526020015b60405180910390f35b61014b6102ff565b60405161013a91906110d1565b61016b6101663660046110e4565b610391565b6040516001600160a01b03909116815260200161013a565b610196610191366004611119565b6103ba565b005b6101ab6101a63660046110e4565b6103c9565b60405161013a99989796959493929190611143565b6101966101ce3660046111bf565b6105b8565b6101966101e13660046111bf565b610648565b61016b6101f43660046110e4565b610668565b61020c6102073660046111fb565b610673565b60405190815260200161013a565b6101966106bb565b6006546001600160a01b031661016b565b61014b6106cf565b610196610249366004611226565b6106de565b61019661025c366004611345565b6106e9565b61014b61026f3660046110e4565b610700565b61019661028236600461149d565b610775565b61012e6102953660046115c6565b61088b565b6101966102a83660046111fb565b6108b9565b60006001600160e01b031982166380ac58cd60e01b14806102de57506001600160e01b03198216635b5e139f60e01b145b806102f957506301ffc9a760e01b6001600160e01b03198316145b92915050565b60606000805461030e906115f0565b80601f016020809104026020016040519081016040528092919081815260200182805461033a906115f0565b80156103875780601f1061035c57610100808354040283529160200191610387565b820191906000526020600020905b81548152906001019060200180831161036a57829003601f168201915b5050505050905090565b600061039c826108f7565b506000828152600460205260409020546001600160a01b03166102f9565b6103c5828233610930565b5050565b600760205260009081526040902080546001820154600283018054929391926103f1906115f0565b80601f016020809104026020016040519081016040528092919081815260200182805461041d906115f0565b801561046a5780601f1061043f5761010080835404028352916020019161046a565b820191906000526020600020905b81548152906001019060200180831161044d57829003601f168201915b505050505090806003015490806004018054610485906115f0565b80601f01602080910402602001604051908101604052809291908181526020018280546104b1906115f0565b80156104fe5780601f106104d3576101008083540402835291602001916104fe565b820191906000526020600020905b8154815290600101906020018083116104e157829003601f168201915b505050505090806005015490806006018054610519906115f0565b80601f0160208091040260200160405190810160405280929190818152602001828054610545906115f0565b80156105925780601f1061056757610100808354040283529160200191610592565b820191906000526020600020905b81548152906001019060200180831161057557829003601f168201915b505050600790930154919250506001600160a01b0381169060ff600160a01b9091041689565b6001600160a01b0382166105e757604051633250574960e11b8152600060048201526024015b60405180910390fd5b60006105f483833361093d565b9050836001600160a01b0316816001600160a01b031614610642576040516364283d7b60e01b81526001600160a01b03808616600483015260248201849052821660448201526064016105de565b50505050565b610663838383604051806020016040528060008152506106e9565b505050565b60006102f9826108f7565b60006001600160a01b03821661069f576040516322718ad960e21b8152600060048201526024016105de565b506001600160a01b031660009081526003602052604090205490565b6106c3610a36565b6106cd6000610a63565b565b60606001805461030e906115f0565b6103c5338383610ab5565b6106f48484846105b8565b61064284848484610b54565b606061070b826108f7565b50600061072360408051602081019091526000815290565b90506000815111610743576040518060200160405280600081525061076e565b8061074d84610c7d565b60405160200161075e92919061162a565b6040516020818303038152906040525b9392505050565b60608101516107843382610d10565b6000818152600760205260408120905b83610120015151811015610832578160080184610120015182815181106107bd576107bd611659565b602090810291909101810151825460018082018555600094855293839020825160039092020180546001600160a01b03199081166001600160a01b039384161782559383015194810180549094169490911693909317909155604001516002909101558061082a8161166f565b915050610794565b50825160208085015160e086015160408051948552928401919091526001600160a01b031682820152517ff18fedf59307076dfa10d1ab907521e13f071579e87f5a6ea9acd3d38ea09efb9181900360600190a1505050565b6001600160a01b03918216600090815260056020908152604080832093909416825291909152205460ff1690565b6108c1610a36565b6001600160a01b0381166108eb57604051631e4fbdf760e01b8152600060048201526024016105de565b6108f481610a63565b50565b6000818152600260205260408120546001600160a01b0316806102f957604051637e27328960e01b8152600481018490526024016105de565b6106638383836001610d2a565b6000828152600260205260408120546001600160a01b039081169083161561096a5761096a818486610e30565b6001600160a01b038116156109a857610987600085600080610d2a565b6001600160a01b038116600090815260036020526040902080546000190190555b6001600160a01b038516156109d7576001600160a01b0385166000908152600360205260409020805460010190555b60008481526002602052604080822080546001600160a01b0319166001600160a01b0389811691821790925591518793918516917fddf252ad1be2c89b69c2b068fc378daa952ba7f163c4a11628f55a4df523b3ef91a4949350505050565b6006546001600160a01b031633146106cd5760405163118cdaa760e01b81523360048201526024016105de565b600680546001600160a01b038381166001600160a01b0319831681179093556040519116919082907f8be0079c531659141344cd1fd0a4f28419497f9722a3daafe3b4186f6b6457e090600090a35050565b6001600160a01b038216610ae757604051630b61174360e31b81526001600160a01b03831660048201526024016105de565b6001600160a01b03838116600081815260056020908152604080832094871680845294825291829020805460ff191686151590811790915591519182527f17307eab39ab6107e8899845ad3d59bd9653f200f220920489ca2b5937696c31910160405180910390a3505050565b6001600160a01b0383163b1561064257604051630a85bd0160e11b81526001600160a01b0384169063150b7a0290610b96903390889087908790600401611696565b6020604051808303816000875af1925050508015610bd1575060408051601f3d908101601f19168201909252610bce918101906116d3565b60015b610c3a573d808015610bff576040519150601f19603f3d011682016040523d82523d6000602084013e610c04565b606091505b508051600003610c3257604051633250574960e11b81526001600160a01b03851660048201526024016105de565b805181602001fd5b6001600160e01b03198116630a85bd0160e11b14610c7657604051633250574960e11b81526001600160a01b03851660048201526024016105de565b5050505050565b60606000610c8a83610e94565b600101905060008167ffffffffffffffff811115610caa57610caa611259565b6040519080825280601f01601f191660200182016040528015610cd4576020820181803683370190505b5090508181016020015b600019016f181899199a1a9b1b9c1cb0b131b232b360811b600a86061a8153600a8504945084610cde57509392505050565b6103c5828260405180602001604052806000815250610f6c565b8080610d3e57506001600160a01b03821615155b15610e00576000610d4e846108f7565b90506001600160a01b03831615801590610d7a5750826001600160a01b0316816001600160a01b031614155b8015610d8d5750610d8b818461088b565b155b15610db65760405163a9fbf51f60e01b81526001600160a01b03841660048201526024016105de565b8115610dfe5783856001600160a01b0316826001600160a01b03167f8c5be1e5ebec7d5bd14f71427d1e84f3dd0314c0f7b2291e5b200ac8c7c3b92560405160405180910390a45b505b5050600090815260046020526040902080546001600160a01b0319166001600160a01b0392909216919091179055565b610e3b838383610f83565b610663576001600160a01b038316610e6957604051637e27328960e01b8152600481018290526024016105de565b60405163177e802f60e01b81526001600160a01b0383166004820152602481018290526044016105de565b60008072184f03e93ff9f4daa797ed6e38ed64bf6a1f0160401b8310610ed35772184f03e93ff9f4daa797ed6e38ed64bf6a1f0160401b830492506040015b6d04ee2d6d415b85acef81000000008310610eff576d04ee2d6d415b85acef8100000000830492506020015b662386f26fc100008310610f1d57662386f26fc10000830492506010015b6305f5e1008310610f35576305f5e100830492506008015b6127108310610f4957612710830492506004015b60648310610f5b576064830492506002015b600a83106102f95760010192915050565b610f768383610fe9565b6106636000848484610b54565b60006001600160a01b03831615801590610fe15750826001600160a01b0316846001600160a01b03161480610fbd5750610fbd848461088b565b80610fe157506000828152600460205260409020546001600160a01b038481169116145b949350505050565b6001600160a01b03821661101357604051633250574960e11b8152600060048201526024016105de565b60006110218383600061093d565b90506001600160a01b03811615610663576040516339e3563760e11b8152600060048201526024016105de565b6001600160e01b0319811681146108f457600080fd5b60006020828403121561107657600080fd5b813561076e8161104e565b60005b8381101561109c578181015183820152602001611084565b50506000910152565b600081518084526110bd816020860160208601611081565b601f01601f19169290920160200192915050565b60208152600061076e60208301846110a5565b6000602082840312156110f657600080fd5b5035919050565b80356001600160a01b038116811461111457600080fd5b919050565b6000806040838503121561112c57600080fd5b611135836110fd565b946020939093013593505050565b60006101208b83528a60208401528060408401526111638184018b6110a5565b9050886060840152828103608084015261117d81896110a5565b90508660a084015282810360c084015261119781876110a5565b6001600160a01b039590951660e0840152505090151561010090910152979650505050505050565b6000806000606084860312156111d457600080fd5b6111dd846110fd565b92506111eb602085016110fd565b9150604084013590509250925092565b60006020828403121561120d57600080fd5b61076e826110fd565b8035801515811461111457600080fd5b6000806040838503121561123957600080fd5b611242836110fd565b915061125060208401611216565b90509250929050565b634e487b7160e01b600052604160045260246000fd5b6040516060810167ffffffffffffffff8111828210171561129257611292611259565b60405290565b604051610140810167ffffffffffffffff8111828210171561129257611292611259565b604051601f8201601f1916810167ffffffffffffffff811182821017156112e5576112e5611259565b604052919050565b600067ffffffffffffffff83111561130757611307611259565b61131a601f8401601f19166020016112bc565b905082815283838301111561132e57600080fd5b828260208301376000602084830101529392505050565b6000806000806080858703121561135b57600080fd5b611364856110fd565b9350611372602086016110fd565b925060408501359150606085013567ffffffffffffffff81111561139557600080fd5b8501601f810187136113a657600080fd5b6113b5878235602084016112ed565b91505092959194509250565b600082601f8301126113d257600080fd5b61076e838335602085016112ed565b600082601f8301126113f257600080fd5b8135602067ffffffffffffffff82111561140e5761140e611259565b61141c818360051b016112bc565b8281526060928302850182019282820191908785111561143b57600080fd5b8387015b858110156114905781818a0312156114575760008081fd5b61145f61126f565b611468826110fd565b81526114758683016110fd565b8187015260408281013590820152845292840192810161143f565b5090979650505050505050565b6000602082840312156114af57600080fd5b813567ffffffffffffffff808211156114c757600080fd5b9083019061014082860312156114dc57600080fd5b6114e4611298565b823581526020830135602082015260408301358281111561150457600080fd5b611510878286016113c1565b6040830152506060830135606082015260808301358281111561153257600080fd5b61153e878286016113c1565b60808301525060a083013560a082015260c08301358281111561156057600080fd5b61156c878286016113c1565b60c08301525061157e60e084016110fd565b60e0820152610100611591818501611216565b9082015261012083810135838111156115a957600080fd5b6115b5888287016113e1565b918301919091525095945050505050565b600080604083850312156115d957600080fd5b6115e2836110fd565b9150611250602084016110fd565b600181811c9082168061160457607f821691505b60208210810361162457634e487b7160e01b600052602260045260246000fd5b50919050565b6000835161163c818460208801611081565b835190830190611650818360208801611081565b01949350505050565b634e487b7160e01b600052603260045260246000fd5b60006001820161168f57634e487b7160e01b600052601160045260246000fd5b5060010190565b6001600160a01b03858116825284166020820152604081018390526080606082018190526000906116c9908301846110a5565b9695505050505050565b6000602082840312156116e557600080fd5b815161076e8161104e56fea264697066735822122057ffb994edae4bd566508dd381dff434e26a720dab95faf96cbe8ef4d2a3d9d964736f6c63430008140033610140604052600980546001600160a01b031990811673779877a7b0d9e8603169ddbd7836e478b462478917909155600a805490911673ab18414cd93297b0d12ac29e63ca20f515b3db46179055600d805466010003000186a06001600160501b03199091161790553480156200007557600080fd5b5060405162001c6e38038062001c6e8339810160408190526200009891620002a1565b600954600a546001600160a01b0391821691908116908c908116620000d757604051631e4fbdf760e01b81526000600482015260240160405180910390fd5b620000e2816200016f565b506001600160a01b03918216608052811660a0528a1660c05260e089905261010088905260016200011488826200041b565b5060026200012387826200041b565b5061012085905260036200013885826200041b565b50600492909255600555600780546001600160a01b0319166001600160a01b0390921691909117905550620004e795505050505050565b600080546001600160a01b038381166001600160a01b0319831681178455604051919092169283917f8be0079c531659141344cd1fd0a4f28419497f9722a3daafe3b4186f6b6457e09190a35050565b80516001600160a01b0381168114620001d757600080fd5b919050565b634e487b7160e01b600052604160045260246000fd5b600082601f8301126200020457600080fd5b81516001600160401b0380821115620002215762000221620001dc565b604051601f8301601f19908116603f011681019082821181831017156200024c576200024c620001dc565b816040528381526020925086838588010111156200026957600080fd5b600091505b838210156200028d57858201830151818301840152908201906200026e565b600093810190920192909252949350505050565b6000806000806000806000806000806101408b8d031215620002c257600080fd5b620002cd8b620001bf565b60208c015160408d015160608e0151929c50909a5098506001600160401b0380821115620002fa57600080fd5b620003088e838f01620001f2565b985060808d01519150808211156200031f57600080fd5b6200032d8e838f01620001f2565b975060a08d0151965060c08d01519150808211156200034b57600080fd5b506200035a8d828e01620001f2565b94505060e08b015192506101008b015191506200037b6101208c01620001bf565b90509295989b9194979a5092959850565b600181811c90821680620003a157607f821691505b602082108103620003c257634e487b7160e01b600052602260045260246000fd5b50919050565b601f8211156200041657600081815260208120601f850160051c81016020861015620003f15750805b601f850160051c820191505b818110156200041257828155600101620003fd565b5050505b505050565b81516001600160401b03811115620004375762000437620001dc565b6200044f816200044884546200038c565b84620003c8565b602080601f8311600181146200048757600084156200046e5750858301515b600019600386901b1c1916600185901b17855562000412565b600085815260208120601f198616915b82811015620004b85788860151825594840194600190910190840162000497565b5085821015620004d75787850151600019600388901b60f8161c191681555b5050505050600190811b01905550565b60805160a05160c05160e05161010051610120516116dc620005926000396000818161015b0152818161051d0152610dd3015260008181610486015281816106270152818161084d01528181610b7b0152610c870152600081816104a8015281816106490152818161086f01528181610b9e0152610c61015260008181610403015261045b0152600081816102d501528181611033015261113c0152600061100901526116dc6000f3fe6080604052600436106100dd5760003560e01c8063ac3077731161007f578063f2fde38b11610059578063f2fde38b14610247578063fa89401a14610267578063fc2a88c314610287578063fc7e286d1461029d57600080fd5b8063ac30777314610215578063d0e30db01461022a578063e0c862891461023257600080fd5b806387bb7ae0116100bb57806387bb7ae01461014c5780638da5cb5b1461017f578063a168fa89146101a7578063a1bdda52146101f357600080fd5b80631fe543e3146100e2578063715018a6146101045780638796ba8c14610119575b600080fd5b3480156100ee57600080fd5b506101026100fd36600461123a565b6102ca565b005b34801561011057600080fd5b50610102610355565b34801561012557600080fd5b50610139610134366004611304565b610369565b6040519081526020015b60405180910390f35b34801561015857600080fd5b507f0000000000000000000000000000000000000000000000000000000000000000610139565b34801561018b57600080fd5b506000546040516001600160a01b039091168152602001610143565b3480156101b357600080fd5b506101de6101c2366004611304565b600e602052600090815260409020805460019091015460ff1682565b60408051928352901515602083015201610143565b3480156101ff57600080fd5b5061020861038a565b604051610143919061131d565b34801561022157600080fd5b506101026103ec565b6101026104f7565b34801561023e57600080fd5b50610139610691565b34801561025357600080fd5b5061010261026236600461136a565b610754565b34801561027357600080fd5b5061010261028236600461136a565b610792565b34801561029357600080fd5b50610139600c5481565b3480156102a957600080fd5b506101396102b836600461136a565b60086020526000908152604090205481565b336001600160a01b037f000000000000000000000000000000000000000000000000000000000000000016146103475760405162461bcd60e51b815260206004820152601f60248201527f6f6e6c792056524620563220777261707065722063616e2066756c66696c6c0060448201526064015b60405180910390fd5b61035182826108be565b5050565b61035d610f66565b6103676000610f93565b565b600b818154811061037957600080fd5b600091825260209091200154905081565b606060068054806020026020016040519081016040528092919081815260200182805480156103e257602002820191906000526020600020905b81546001600160a01b031681526001909101906020018083116103c4575b5050505050905090565b6103f4610f66565b60405147906001600160a01b037f0000000000000000000000000000000000000000000000000000000000000000169082156108fc029083906000818181858888f1935050505015801561044c573d6000803e3d6000fd5b50604080516001600160a01b037f0000000000000000000000000000000000000000000000000000000000000000168152602081018390527f0000000000000000000000000000000000000000000000000000000000000000917f0000000000000000000000000000000000000000000000000000000000000000917f3ea2c8a0a1289b70ff17a595b1415b71f7c8457d8beb38bce6c0a484f8afd4cf91015b60405180910390a350565b6005548042111561051b5760405163043d07a360e41b815260040160405180910390fd5b7f0000000000000000000000000000000000000000000000000000000000000000341161059b5760405162461bcd60e51b815260206004820152602860248201527f4465706f736974206d7573742062652067726561746572207468616e207469636044820152676b6574507269636560c01b606482015260840161033e565b3360009081526008602052604081205490036105f457600680546001810182556000919091527ff652222313e28459528d920b65115c16c04f3efc82aaedc97be59f3f377c0d3f0180546001600160a01b031916331790555b33600090815260086020526040812080543492906106139084906113b0565b9091555050604080513381523460208201527f0000000000000000000000000000000000000000000000000000000000000000917f0000000000000000000000000000000000000000000000000000000000000000917fbb5116f7c5baded95ebecb639657a3ca3eb8ce830fc866168555f40e9838aa9591016104ec565b600061069b610f66565b600d546106c99063ffffffff8082169161ffff64010000000082041691660100000000000090910416610fe3565b600b80546001810182556000919091527f0175b7a638427703f0dbe7bb9bbf987a2551717b34e79f33b5b1008d1fa01db901819055600c819055600d5460408051838152660100000000000090920463ffffffff1660208301529192507f4461b2777889df5916f85d2cecf8eafcc1bb8f0ecee41ddca4b9497a07ad4c96910160405180910390a190565b61075c610f66565b6001600160a01b03811661078657604051631e4fbdf760e01b81526000600482015260240161033e565b61078f81610f93565b50565b6001600160a01b038116600090815260086020526040902054806107ef5760405162461bcd60e51b8152602060048201526014602482015273139bc819195c1bdcda5d081d1bc81c99599d5b9960621b604482015260640161033e565b6001600160a01b0382166000818152600860205260408082208290555183156108fc0291849190818181858888f19350505050158015610833573d6000803e3d6000fd5b50604080516001600160a01b0384168152602081018390527f0000000000000000000000000000000000000000000000000000000000000000917f0000000000000000000000000000000000000000000000000000000000000000917f5760598089661e85377df061128b09cf866f4ca83b8bdb788ee2cac6b312da94910160405180910390a35050565b600654600454811115610c01576000838152600e602052604090205461091a5760405162461bcd60e51b81526020600482015260116024820152701c995c5d595cdd081b9bdd08199bdd5b99607a1b604482015260640161033e565b6000838152600e602090815260409091206001818101805460ff19169091179055835161094f926002909201918501906111c4565b506000838152600e6020526040908190205490517f995710b7ed8be2dbebb5e6c5a678b135a6b229b37bb79c777d6cd952258b95af9161099291869186916113c9565b60405180910390a160005b6109a8600183611420565b811015610ac85760006109bb8284611420565b846000815181106109ce576109ce611433565b60200260200101516109e09190611449565b6109ea90836113b0565b9050600681815481106109ff576109ff611433565b600091825260209091200154600680546001600160a01b039092169184908110610a2b57610a2b611433565b600091825260209091200154600680546001600160a01b039092169185908110610a5757610a57611433565b90600052602060002001600060068581548110610a7657610a76611433565b600091825260209091200180546001600160a01b039485166001600160a01b031990911617905581549383166101009190910a9081029202199092161790555080610ac08161146b565b91505061099d565b506004545b81811015610bff57600060068281548110610aea57610aea611433565b6000918252602080832091909101546001600160a01b03168083526008909152604091829020549151637d44a00d60e11b815260048101829052909250309063fa89401a90602401600060405180830381600087803b158015610b4c57600080fd5b505af1158015610b60573d6000803e3d6000fd5b5050604080516001600160a01b0386168152602081018590527f000000000000000000000000000000000000000000000000000000000000000093507f000000000000000000000000000000000000000000000000000000000000000092507fe7d940172a728ff1d3be17ee88351c67291e24ec6cfa5ec2b4635fca5e1addd2910160405180910390a350508080610bf79061146b565b915050610acd565b505b60005b60045481108015610c1457508181105b15610f6057600060068281548110610c2e57610c2e611433565b60009182526020822001546001600160a01b03169150610c4f8360016113b0565b905060006040518061014001604052807f000000000000000000000000000000000000000000000000000000000000000081526020017f0000000000000000000000000000000000000000000000000000000000000000815260200160018054610cb890611484565b80601f0160208091040260200160405190810160405280929190818152602001828054610ce490611484565b8015610d315780601f10610d0657610100808354040283529160200191610d31565b820191906000526020600020905b815481529060010190602001808311610d1457829003601f168201915b5050505050815260200183815260200160028054610d4e90611484565b80601f0160208091040260200160405190810160405280929190818152602001828054610d7a90611484565b8015610dc75780601f10610d9c57610100808354040283529160200191610dc7565b820191906000526020600020905b815481529060010190602001808311610daa57829003601f168201915b505050505081526020017f0000000000000000000000000000000000000000000000000000000000000000815260200160038054610e0490611484565b80601f0160208091040260200160405190810160405280929190818152602001828054610e3090611484565b8015610e7d5780601f10610e5257610100808354040283529160200191610e7d565b820191906000526020600020905b815481529060010190602001808311610e6057829003601f168201915b50505091835250506001600160a01b0385166020808301919091526000604080840182905280518281529283019052606090920191610ee4565b6040805160608101825260008082526020808301829052928201528252600019909201910181610eb75790505b5090526007546040516319e006e960e31b81529192506001600160a01b03169063cf00374890610f18908490600401611561565b600060405180830381600087803b158015610f3257600080fd5b505af1158015610f46573d6000803e3d6000fd5b505050505050508080610f589061146b565b915050610c04565b50505050565b6000546001600160a01b031633146103675760405163118cdaa760e01b815233600482015260240161033e565b600080546001600160a01b038381166001600160a01b0319831681178455604051919092169283917f8be0079c531659141344cd1fd0a4f28419497f9722a3daafe3b4186f6b6457e09190a35050565b6040516310c1b4d560e21b815263ffffffff841660048201526000906001600160a01b037f0000000000000000000000000000000000000000000000000000000000000000811691634000aea0917f00000000000000000000000000000000000000000000000000000000000000009190821690634306d35490602401602060405180830381865afa15801561107d573d6000803e3d6000fd5b505050506040513d601f19601f820116820180604052508101906110a1919061163b565b6040805163ffffffff808b16602083015261ffff8a169282019290925290871660608201526080016040516020818303038152906040526040518463ffffffff1660e01b81526004016110f693929190611654565b6020604051808303816000875af1158015611115573d6000803e3d6000fd5b505050506040513d601f19601f820116820180604052508101906111399190611684565b507f00000000000000000000000000000000000000000000000000000000000000006001600160a01b031663fc2a88c36040518163ffffffff1660e01b8152600401602060405180830381865afa158015611198573d6000803e3d6000fd5b505050506040513d601f19601f820116820180604052508101906111bc919061163b565b949350505050565b8280548282559060005260206000209081019282156111ff579160200282015b828111156111ff5782518255916020019190600101906111e4565b5061120b92915061120f565b5090565b5b8082111561120b5760008155600101611210565b634e487b7160e01b600052604160045260246000fd5b6000806040838503121561124d57600080fd5b8235915060208084013567ffffffffffffffff8082111561126d57600080fd5b818601915086601f83011261128157600080fd5b81358181111561129357611293611224565b8060051b604051601f19603f830116810181811085821117156112b8576112b8611224565b6040529182528482019250838101850191898311156112d657600080fd5b938501935b828510156112f4578435845293850193928501926112db565b8096505050505050509250929050565b60006020828403121561131657600080fd5b5035919050565b6020808252825182820181905260009190848201906040850190845b8181101561135e5783516001600160a01b031683529284019291840191600101611339565b50909695505050505050565b60006020828403121561137c57600080fd5b81356001600160a01b038116811461139357600080fd5b9392505050565b634e487b7160e01b600052601160045260246000fd5b808201808211156113c3576113c361139a565b92915050565b6000606082018583526020606081850152818651808452608086019150828801935060005b8181101561140a578451835293830193918301916001016113ee565b5050809350505050826040830152949350505050565b818103818111156113c3576113c361139a565b634e487b7160e01b600052603260045260246000fd5b60008261146657634e487b7160e01b600052601260045260246000fd5b500690565b60006001820161147d5761147d61139a565b5060010190565b600181811c9082168061149857607f821691505b6020821081036114b857634e487b7160e01b600052602260045260246000fd5b50919050565b6000815180845260005b818110156114e4576020818501810151868301820152016114c8565b506000602082860101526020601f19601f83011685010191505092915050565b600081518084526020808501945080840160005b8381101561155657815180516001600160a01b0390811689528482015116848901526040908101519088015260609096019590820190600101611518565b509495945050505050565b602081528151602082015260208201516040820152600060408301516101408060608501526115946101608501836114be565b9150606085015160808501526080850151601f19808685030160a08701526115bc84836114be565b935060a087015160c087015260c08701519150808685030160e08701526115e384836114be565b935060e08701519150610100611603818801846001600160a01b03169052565b87015191506101206116188782018415159052565b8701518685039091018387015290506116318382611504565b9695505050505050565b60006020828403121561164d57600080fd5b5051919050565b60018060a01b038416815282602082015260606040820152600061167b60608301846114be565b95945050505050565b60006020828403121561169657600080fd5b8151801515811461139357600080fdfea2646970667358221220e5e75e88b80f34644cc2daa6d6e5afabf50146806a2f232e56084409261fedcd64736f6c63430008140033a26469706673582212201c12140c2beb2991c8373e3f7134be23e47a8c22298822a3555ee2573650110964736f6c63430008140033","linkReferences":{}},"methodIdentifiers":{"createEscrow(address,uint256,uint256,string,string,uint256,string,uint256,uint256)":"97fc63d1","escrows(uint256)":"012f52ee","escrowsMapTickets(address)":"7f22a123","getEscrowAddressByTicketType(uint256)":"bb9faf66"},"id":36}