{"abi":[{"type":"constructor","inputs":[],"stateMutability":"nonpayable"},{"type":"receive","stateMutability":"payable"},{"type":"function","name":"buyNFT","inputs":[{"name":"lotteryAddress","type":"address","internalType":"address"},{"name":"tokenId","type":"uint256","internalType":"uint256"}],"outputs":[],"stateMutability":"payable"},{"type":"function","name":"delistNFT","inputs":[{"name":"lotteryAddress","type":"address","internalType":"address"},{"name":"tokenId","type":"uint256","internalType":"uint256"}],"outputs":[],"stateMutability":"nonpayable"},{"type":"function","name":"factoryAddress","inputs":[],"outputs":[{"name":"","type":"address","internalType":"address"}],"stateMutability":"view"},{"type":"function","name":"listNFT","inputs":[{"name":"lotteryAddress","type":"address","internalType":"address"},{"name":"tokenId","type":"uint256","internalType":"uint256"},{"name":"price","type":"uint256","internalType":"uint256"}],"outputs":[],"stateMutability":"nonpayable"},{"type":"function","name":"listings","inputs":[{"name":"","type":"address","internalType":"address"},{"name":"","type":"uint256","internalType":"uint256"}],"outputs":[{"name":"seller","type":"address","internalType":"address"},{"name":"lotteryAddress","type":"address","internalType":"address"},{"name":"tokenId","type":"uint256","internalType":"uint256"},{"name":"price","type":"uint256","internalType":"uint256"}],"stateMutability":"view"},{"type":"function","name":"onERC721Received","inputs":[{"name":"operator","type":"address","internalType":"address"},{"name":"from","type":"address","internalType":"address"},{"name":"tokenId","type":"uint256","internalType":"uint256"},{"name":"data","type":"bytes","internalType":"bytes"}],"outputs":[{"name":"","type":"bytes4","internalType":"bytes4"}],"stateMutability":"nonpayable"},{"type":"function","name":"owner","inputs":[],"outputs":[{"name":"","type":"address","internalType":"address"}],"stateMutability":"view"},{"type":"function","name":"renounceOwnership","inputs":[],"outputs":[],"stateMutability":"nonpayable"},{"type":"function","name":"setFactoryAddress","inputs":[{"name":"_factoryAddress","type":"address","internalType":"address"}],"outputs":[],"stateMutability":"nonpayable"},{"type":"function","name":"transferOwnership","inputs":[{"name":"newOwner","type":"address","internalType":"address"}],"outputs":[],"stateMutability":"nonpayable"},{"type":"event","name":"NFTDelisted","inputs":[{"name":"seller","type":"address","indexed":true,"internalType":"address"},{"name":"lotteryAddress","type":"address","indexed":true,"internalType":"address"},{"name":"tokenId","type":"uint256","indexed":true,"internalType":"uint256"}],"anonymous":false},{"type":"event","name":"NFTListed","inputs":[{"name":"seller","type":"address","indexed":true,"internalType":"address"},{"name":"lotteryAddress","type":"address","indexed":true,"internalType":"address"},{"name":"tokenId","type":"uint256","indexed":true,"internalType":"uint256"},{"name":"price","type":"uint256","indexed":false,"internalType":"uint256"}],"anonymous":false},{"type":"event","name":"NFTSold","inputs":[{"name":"buyer","type":"address","indexed":true,"internalType":"address"},{"name":"lotteryAddress","type":"address","indexed":true,"internalType":"address"},{"name":"tokenId","type":"uint256","indexed":true,"internalType":"uint256"},{"name":"price","type":"uint256","indexed":false,"internalType":"uint256"}],"anonymous":false},{"type":"event","name":"OwnershipTransferred","inputs":[{"name":"previousOwner","type":"address","indexed":true,"internalType":"address"},{"name":"newOwner","type":"address","indexed":true,"internalType":"address"}],"anonymous":false},{"type":"error","name":"OwnableInvalidOwner","inputs":[{"name":"owner","type":"address","internalType":"address"}]},{"type":"error","name":"OwnableUnauthorizedAccount","inputs":[{"name":"account","type":"address","internalType":"address"}]},{"type":"error","name":"ReentrancyGuardReentrantCall","inputs":[]}],"bytecode":{"object":"0x608060405234801561001057600080fd5b506001600055338061003c57604051631e4fbdf760e01b81526000600482015260240160405180910390fd5b6100458161004b565b5061009d565b600180546001600160a01b038381166001600160a01b0319831681179093556040519116919082907f8be0079c531659141344cd1fd0a4f28419497f9722a3daafe3b4186f6b6457e090600090a35050565b610d16806100ac6000396000f3fe6080604052600436106100945760003560e01c8063966dae0e11610059578063966dae0e1461023f578063a17a70941461025f578063a82ba76f1461027f578063ad05f1b414610292578063f2fde38b146102b257600080fd5b806207df30146100eb578063150b7a0214610174578063715018a6146101b957806383c17c55146101d05780638da5cb5b1461020d57600080fd5b366100e65760405162461bcd60e51b815260206004820152601b60248201527f446972656374207061796d656e7473206e6f7420616c6c6f776564000000000060448201526064015b60405180910390fd5b600080fd5b3480156100f757600080fd5b50610144610106366004610b64565b6003602081815260009384526040808520909152918352912080546001820154600283015492909301546001600160a01b0391821693909116919084565b604080516001600160a01b0395861681529490931660208501529183015260608201526080015b60405180910390f35b34801561018057600080fd5b506101a061018f366004610b90565b630a85bd0160e11b95945050505050565b6040516001600160e01b0319909116815260200161016b565b3480156101c557600080fd5b506101ce6102d2565b005b3480156101dc57600080fd5b506101ce6101eb366004610c2f565b600280546001600160a01b0319166001600160a01b0392909216919091179055565b34801561021957600080fd5b506001546001600160a01b03165b6040516001600160a01b03909116815260200161016b565b34801561024b57600080fd5b50600254610227906001600160a01b031681565b34801561026b57600080fd5b506101ce61027a366004610b64565b6102e6565b6101ce61028d366004610b64565b610473565b34801561029e57600080fd5b506101ce6102ad366004610c53565b61069d565b3480156102be57600080fd5b506101ce6102cd366004610c2f565b610a68565b6102da610aa6565b6102e46000610ad3565b565b6102ee610b25565b6001600160a01b03808316600090815260036020818152604080842086855282529283902083516080810185528154861680825260018301549096169281019290925260028101549382019390935291015460608201529033146103855760405162461bcd60e51b815260206004820152600e60248201526d2737ba103a34329039b2b63632b960911b60448201526064016100dd565b8051604051632142170760e11b81523060048201526001600160a01b03918216602482015260448101849052908416906342842e0e90606401600060405180830381600087803b1580156103d857600080fd5b505af11580156103ec573d6000803e3d6000fd5b5050506001600160a01b038416600081815260036020818152604080842088855290915280832080546001600160a01b031990811682556001820180549091169055600281018490559091018290555185935033917ffc314074f528769d77ad4a29ede7c622894f632282e936ebefff2646a598c2ee91a45061046f6001600055565b5050565b61047b610b25565b6001600160a01b038083166000908152600360208181526040808420868552825292839020835160808101855281548616815260018201549095169185019190915260028101549284019290925201546060820181905261051e5760405162461bcd60e51b815260206004820152601760248201527f4e4654206e6f74206c697374656420666f722073616c6500000000000000000060448201526064016100dd565b806060015134146105685760405162461bcd60e51b8152602060048201526014602482015273125b98dbdc9c9958dd081d985b1d59481cd95b9d60621b60448201526064016100dd565b805160608201516040516001600160a01b039092169181156108fc0291906000818181858888f193505050501580156105a5573d6000803e3d6000fd5b50604051632142170760e11b8152306004820152336024820152604481018390526001600160a01b038416906342842e0e90606401600060405180830381600087803b1580156105f457600080fd5b505af1158015610608573d6000803e3d6000fd5b505050506001600160a01b0383166000818152600360208181526040808420878552825280842080546001600160a01b03199081168255600182018054909116905560028101859055909201929092556060840151905190815284929133917ff6ccc0cf89c21c54724ea6ef2ec01da8fe33a1cebe06607e160fd78483eba302910160405180910390a45061046f6001600055565b6106a5610b25565b60025460405163c3c5a54760e01b81526001600160a01b0380861660048301528592169063c3c5a54790602401602060405180830381865afa1580156106ef573d6000803e3d6000fd5b505050506040513d601f19601f820116820180604052508101906107139190610c88565b61075f5760405162461bcd60e51b815260206004820152601f60248201527f4c6f747465727920636f6e7472616374206e6f7420726567697374657265640060448201526064016100dd565b6040516331a9108f60e11b815260048101849052849033906001600160a01b03831690636352211e90602401602060405180830381865afa1580156107a8573d6000803e3d6000fd5b505050506040513d601f19601f820116820180604052508101906107cc9190610caa565b6001600160a01b0316146108125760405162461bcd60e51b815260206004820152600d60248201526c2737ba103a34329037bbb732b960991b60448201526064016100dd565b6000859050806001600160a01b031663a035b1fe6040518163ffffffff1660e01b8152600401602060405180830381865afa158015610855573d6000803e3d6000fd5b505050506040513d601f19601f820116820180604052508101906108799190610cc7565b8411156108c85760405162461bcd60e51b815260206004820152601b60248201527f50726963652065786365656473206c6f7474657279207072696365000000000060448201526064016100dd565b604051632142170760e11b8152336004820152306024820152604481018690526001600160a01b038316906342842e0e90606401600060405180830381600087803b15801561091657600080fd5b505af115801561092a573d6000803e3d6000fd5b505050506040518060800160405280336001600160a01b03168152602001876001600160a01b031681526020018681526020018581525060036000886001600160a01b03166001600160a01b03168152602001908152602001600020600087815260200190815260200160002060008201518160000160006101000a8154816001600160a01b0302191690836001600160a01b0316021790555060208201518160010160006101000a8154816001600160a01b0302191690836001600160a01b03160217905550604082015181600201556060820151816003015590505084866001600160a01b0316336001600160a01b03167fbeab3a2bb824b124a8a1eb465eec003338d61b414db132d37e9b3a984fdcf01087604051610a4e91815260200190565b60405180910390a4505050610a636001600055565b505050565b610a70610aa6565b6001600160a01b038116610a9a57604051631e4fbdf760e01b8152600060048201526024016100dd565b610aa381610ad3565b50565b6001546001600160a01b031633146102e45760405163118cdaa760e01b81523360048201526024016100dd565b600180546001600160a01b038381166001600160a01b0319831681179093556040519116919082907f8be0079c531659141344cd1fd0a4f28419497f9722a3daafe3b4186f6b6457e090600090a35050565b600260005403610b4857604051633ee5aeb560e01b815260040160405180910390fd5b6002600055565b6001600160a01b0381168114610aa357600080fd5b60008060408385031215610b7757600080fd5b8235610b8281610b4f565b946020939093013593505050565b600080600080600060808688031215610ba857600080fd5b8535610bb381610b4f565b94506020860135610bc381610b4f565b935060408601359250606086013567ffffffffffffffff80821115610be757600080fd5b818801915088601f830112610bfb57600080fd5b813581811115610c0a57600080fd5b896020828501011115610c1c57600080fd5b9699959850939650602001949392505050565b600060208284031215610c4157600080fd5b8135610c4c81610b4f565b9392505050565b600080600060608486031215610c6857600080fd5b8335610c7381610b4f565b95602085013595506040909401359392505050565b600060208284031215610c9a57600080fd5b81518015158114610c4c57600080fd5b600060208284031215610cbc57600080fd5b8151610c4c81610b4f565b600060208284031215610cd957600080fd5b505191905056fea26469706673582212205075ed6355a4765991388216335694ddaa6ed661c9b071d0ca8e9fe28eebbe0c64736f6c63430008140033","linkReferences":{}},"methodIdentifiers":{"buyNFT(address,uint256)":"a82ba76f","delistNFT(address,uint256)":"a17a7094","factoryAddress()":"966dae0e","listNFT(address,uint256,uint256)":"ad05f1b4","listings(address,uint256)":"0007df30","onERC721Received(address,address,uint256,bytes)":"150b7a02","owner()":"8da5cb5b","renounceOwnership()":"715018a6","setFactoryAddress(address)":"83c17c55","transferOwnership(address)":"f2fde38b"},"id":48}