{
  "abi": [
    {
      "inputs": [
        {
          "internalType": "address",
          "name": "_organizer",
          "type": "address"
        },
        {
          "internalType": "uint256",
          "name": "_concertId",
          "type": "uint256"
        },
        {
          "internalType": "uint256",
          "name": "_ticketType",
          "type": "uint256"
        },
        {
          "internalType": "string",
          "name": "_typeName",
          "type": "string"
        },
        {
          "internalType": "string",
          "name": "_name",
          "type": "string"
        },
        {
          "internalType": "uint256",
          "name": "_price",
          "type": "uint256"
        },
        {
          "internalType": "string",
          "name": "_url",
          "type": "string"
        },
        {
          "internalType": "uint256",
          "name": "_ticketCount",
          "type": "uint256"
        },
        {
          "internalType": "uint256",
          "name": "_ddl",
          "type": "uint256"
        }
      ],
      "stateMutability": "nonpayable",
      "type": "constructor"
    },
    {
      "inputs": [
        {
          "internalType": "address",
          "name": "sender",
          "type": "address"
        },
        {
          "internalType": "uint256",
          "name": "tokenId",
          "type": "uint256"
        },
        {
          "internalType": "address",
          "name": "owner",
          "type": "address"
        }
      ],
      "name": "ERC721IncorrectOwner",
      "type": "error"
    },
    {
      "inputs": [
        {
          "internalType": "address",
          "name": "operator",
          "type": "address"
        },
        {
          "internalType": "uint256",
          "name": "tokenId",
          "type": "uint256"
        }
      ],
      "name": "ERC721InsufficientApproval",
      "type": "error"
    },
    {
      "inputs": [
        {
          "internalType": "address",
          "name": "approver",
          "type": "address"
        }
      ],
      "name": "ERC721InvalidApprover",
      "type": "error"
    },
    {
      "inputs": [
        {
          "internalType": "address",
          "name": "operator",
          "type": "address"
        }
      ],
      "name": "ERC721InvalidOperator",
      "type": "error"
    },
    {
      "inputs": [
        {
          "internalType": "address",
          "name": "owner",
          "type": "address"
        }
      ],
      "name": "ERC721InvalidOwner",
      "type": "error"
    },
    {
      "inputs": [
        {
          "internalType": "address",
          "name": "receiver",
          "type": "address"
        }
      ],
      "name": "ERC721InvalidReceiver",
      "type": "error"
    },
    {
      "inputs": [
        {
          "internalType": "address",
          "name": "sender",
          "type": "address"
        }
      ],
      "name": "ERC721InvalidSender",
      "type": "error"
    },
    {
      "inputs": [
        {
          "internalType": "uint256",
          "name": "tokenId",
          "type": "uint256"
        }
      ],
      "name": "ERC721NonexistentToken",
      "type": "error"
    },
    {
      "inputs": [],
      "name": "LotteryEscrowError__DepositTimeOut",
      "type": "error"
    },
    {
      "inputs": [],
      "name": "LotteryEscrowError__alreadyJoin",
      "type": "error"
    },
    {
      "inputs": [
        {
          "internalType": "address",
          "name": "owner",
          "type": "address"
        }
      ],
      "name": "OwnableInvalidOwner",
      "type": "error"
    },
    {
      "inputs": [
        {
          "internalType": "address",
          "name": "account",
          "type": "address"
        }
      ],
      "name": "OwnableUnauthorizedAccount",
      "type": "error"
    },
    {
      "inputs": [],
      "name": "ReentrancyGuardReentrantCall",
      "type": "error"
    },
    {
      "anonymous": false,
      "inputs": [
        {
          "indexed": true,
          "internalType": "address",
          "name": "owner",
          "type": "address"
        },
        {
          "indexed": true,
          "internalType": "address",
          "name": "approved",
          "type": "address"
        },
        {
          "indexed": true,
          "internalType": "uint256",
          "name": "tokenId",
          "type": "uint256"
        }
      ],
      "name": "Approval",
      "type": "event"
    },
    {
      "anonymous": false,
      "inputs": [
        {
          "indexed": true,
          "internalType": "address",
          "name": "owner",
          "type": "address"
        },
        {
          "indexed": true,
          "internalType": "address",
          "name": "operator",
          "type": "address"
        },
        {
          "indexed": false,
          "internalType": "bool",
          "name": "approved",
          "type": "bool"
        }
      ],
      "name": "ApprovalForAll",
      "type": "event"
    },
    {
      "anonymous": false,
      "inputs": [
        {
          "indexed": false,
          "internalType": "uint256",
          "name": "_fromTokenId",
          "type": "uint256"
        },
        {
          "indexed": false,
          "internalType": "uint256",
          "name": "_toTokenId",
          "type": "uint256"
        }
      ],
      "name": "BatchMetadataUpdate",
      "type": "event"
    },
    {
      "anonymous": false,
      "inputs": [
        {
          "indexed": false,
          "internalType": "uint256",
          "name": "requestId",
          "type": "uint256"
        },
        {
          "indexed": false,
          "internalType": "uint256[]",
          "name": "randomWords",
          "type": "uint256[]"
        },
        {
          "indexed": false,
          "internalType": "uint256",
          "name": "payment",
          "type": "uint256"
        }
      ],
      "name": "ChainlinkVrf__RequestFulfilled",
      "type": "event"
    },
    {
      "anonymous": false,
      "inputs": [
        {
          "indexed": false,
          "internalType": "uint256",
          "name": "requestId",
          "type": "uint256"
        },
        {
          "indexed": false,
          "internalType": "uint32",
          "name": "numWords",
          "type": "uint32"
        }
      ],
      "name": "ChainlinkVrf__RequestSent",
      "type": "event"
    },
    {
      "anonymous": false,
      "inputs": [
        {
          "indexed": true,
          "internalType": "uint256",
          "name": "concertId",
          "type": "uint256"
        },
        {
          "indexed": true,
          "internalType": "uint256",
          "name": "ticketType",
          "type": "uint256"
        },
        {
          "indexed": false,
          "internalType": "address",
          "name": "organizer",
          "type": "address"
        },
        {
          "indexed": false,
          "internalType": "address",
          "name": "winner",
          "type": "address"
        },
        {
          "indexed": false,
          "internalType": "uint256",
          "name": "money",
          "type": "uint256"
        }
      ],
      "name": "LotteryEscrow__ClaimedFund",
      "type": "event"
    },
    {
      "anonymous": false,
      "inputs": [
        {
          "indexed": false,
          "internalType": "address",
          "name": "lotteryAddress",
          "type": "address"
        }
      ],
      "name": "LotteryEscrow__CompleteDraw",
      "type": "event"
    },
    {
      "anonymous": false,
      "inputs": [
        {
          "indexed": true,
          "internalType": "uint256",
          "name": "concertId",
          "type": "uint256"
        },
        {
          "indexed": true,
          "internalType": "uint256",
          "name": "ticketType",
          "type": "uint256"
        },
        {
          "indexed": false,
          "internalType": "address",
          "name": "buyer",
          "type": "address"
        },
        {
          "indexed": false,
          "internalType": "uint256",
          "name": "money",
          "type": "uint256"
        }
      ],
      "name": "LotteryEscrow__Deposited",
      "type": "event"
    },
    {
      "anonymous": false,
      "inputs": [
        {
          "indexed": true,
          "internalType": "uint256",
          "name": "concertId",
          "type": "uint256"
        },
        {
          "indexed": true,
          "internalType": "uint256",
          "name": "ticketType",
          "type": "uint256"
        },
        {
          "indexed": false,
          "internalType": "address",
          "name": "nonWinner",
          "type": "address"
        },
        {
          "indexed": false,
          "internalType": "uint256",
          "name": "money",
          "type": "uint256"
        }
      ],
      "name": "LotteryEscrow__NonWinner",
      "type": "event"
    },
    {
      "anonymous": false,
      "inputs": [
        {
          "indexed": true,
          "internalType": "uint256",
          "name": "concertId",
          "type": "uint256"
        },
        {
          "indexed": true,
          "internalType": "uint256",
          "name": "ticketType",
          "type": "uint256"
        },
        {
          "indexed": false,
          "internalType": "address",
          "name": "buyer",
          "type": "address"
        },
        {
          "indexed": false,
          "internalType": "uint256",
          "name": "money",
          "type": "uint256"
        }
      ],
      "name": "LotteryEscrow__Refunded",
      "type": "event"
    },
    {
      "anonymous": false,
      "inputs": [
        {
          "indexed": true,
          "internalType": "uint256",
          "name": "concertId",
          "type": "uint256"
        },
        {
          "indexed": true,
          "internalType": "uint256",
          "name": "ticketType",
          "type": "uint256"
        },
        {
          "indexed": false,
          "internalType": "address",
          "name": "winner",
          "type": "address"
        }
      ],
      "name": "LotteryEscrow__Winner",
      "type": "event"
    },
    {
      "anonymous": false,
      "inputs": [
        {
          "indexed": false,
          "internalType": "uint256",
          "name": "_tokenId",
          "type": "uint256"
        }
      ],
      "name": "MetadataUpdate",
      "type": "event"
    },
    {
      "anonymous": false,
      "inputs": [
        {
          "indexed": true,
          "internalType": "address",
          "name": "previousOwner",
          "type": "address"
        },
        {
          "indexed": true,
          "internalType": "address",
          "name": "newOwner",
          "type": "address"
        }
      ],
      "name": "OwnershipTransferred",
      "type": "event"
    },
    {
      "anonymous": false,
      "inputs": [
        {
          "indexed": true,
          "internalType": "address",
          "name": "from",
          "type": "address"
        },
        {
          "indexed": true,
          "internalType": "address",
          "name": "to",
          "type": "address"
        },
        {
          "indexed": true,
          "internalType": "uint256",
          "name": "tokenId",
          "type": "uint256"
        }
      ],
      "name": "Transfer",
      "type": "event"
    },
    {
      "inputs": [],
      "name": "Factory",
      "outputs": [
        {
          "internalType": "address",
          "name": "",
          "type": "address"
        }
      ],
      "stateMutability": "view",
      "type": "function"
    },
    {
      "inputs": [
        {
          "internalType": "uint256",
          "name": "",
          "type": "uint256"
        }
      ],
      "name": "allBuyer",
      "outputs": [
        {
          "internalType": "address",
          "name": "",
          "type": "address"
        }
      ],
      "stateMutability": "view",
      "type": "function"
    },
    {
      "inputs": [
        {
          "internalType": "address",
          "name": "to",
          "type": "address"
        },
        {
          "internalType": "uint256",
          "name": "tokenId",
          "type": "uint256"
        }
      ],
      "name": "approve",
      "outputs": [],
      "stateMutability": "nonpayable",
      "type": "function"
    },
    {
      "inputs": [
        {
          "internalType": "address",
          "name": "owner",
          "type": "address"
        }
      ],
      "name": "balanceOf",
      "outputs": [
        {
          "internalType": "uint256",
          "name": "",
          "type": "uint256"
        }
      ],
      "stateMutability": "view",
      "type": "function"
    },
    {
      "inputs": [],
      "name": "completeDraw",
      "outputs": [
        {
          "internalType": "bool",
          "name": "",
          "type": "bool"
        }
      ],
      "stateMutability": "view",
      "type": "function"
    },
    {
      "inputs": [],
      "name": "concertId",
      "outputs": [
        {
          "internalType": "uint256",
          "name": "",
          "type": "uint256"
        }
      ],
      "stateMutability": "view",
      "type": "function"
    },
    {
      "inputs": [],
      "name": "ddl",
      "outputs": [
        {
          "internalType": "uint256",
          "name": "",
          "type": "uint256"
        }
      ],
      "stateMutability": "view",
      "type": "function"
    },
    {
      "inputs": [],
      "name": "deposit",
      "outputs": [],
      "stateMutability": "payable",
      "type": "function"
    },
    {
      "inputs": [
        {
          "internalType": "address",
          "name": "",
          "type": "address"
        }
      ],
      "name": "deposits",
      "outputs": [
        {
          "internalType": "uint256",
          "name": "",
          "type": "uint256"
        }
      ],
      "stateMutability": "view",
      "type": "function"
    },
    {
      "inputs": [
        {
          "internalType": "uint256",
          "name": "tokenId",
          "type": "uint256"
        }
      ],
      "name": "getApproved",
      "outputs": [
        {
          "internalType": "address",
          "name": "",
          "type": "address"
        }
      ],
      "stateMutability": "view",
      "type": "function"
    },
    {
      "inputs": [
        {
          "internalType": "address",
          "name": "owner",
          "type": "address"
        },
        {
          "internalType": "address",
          "name": "operator",
          "type": "address"
        }
      ],
      "name": "isApprovedForAll",
      "outputs": [
        {
          "internalType": "bool",
          "name": "",
          "type": "bool"
        }
      ],
      "stateMutability": "view",
      "type": "function"
    },
    {
      "inputs": [
        {
          "internalType": "address",
          "name": "",
          "type": "address"
        }
      ],
      "name": "isWinner",
      "outputs": [
        {
          "internalType": "bool",
          "name": "",
          "type": "bool"
        }
      ],
      "stateMutability": "view",
      "type": "function"
    },
    {
      "inputs": [],
      "name": "lastRequestId",
      "outputs": [
        {
          "internalType": "uint256",
          "name": "",
          "type": "uint256"
        }
      ],
      "stateMutability": "view",
      "type": "function"
    },
    {
      "inputs": [],
      "name": "linkToken",
      "outputs": [
        {
          "internalType": "contract LinkTokenInterface",
          "name": "",
          "type": "address"
        }
      ],
      "stateMutability": "view",
      "type": "function"
    },
    {
      "inputs": [],
      "name": "name",
      "outputs": [
        {
          "internalType": "string",
          "name": "",
          "type": "string"
        }
      ],
      "stateMutability": "view",
      "type": "function"
    },
    {
      "inputs": [],
      "name": "organizer",
      "outputs": [
        {
          "internalType": "address",
          "name": "",
          "type": "address"
        }
      ],
      "stateMutability": "view",
      "type": "function"
    },
    {
      "inputs": [],
      "name": "owner",
      "outputs": [
        {
          "internalType": "address",
          "name": "",
          "type": "address"
        }
      ],
      "stateMutability": "view",
      "type": "function"
    },
    {
      "inputs": [
        {
          "internalType": "uint256",
          "name": "tokenId",
          "type": "uint256"
        }
      ],
      "name": "ownerOf",
      "outputs": [
        {
          "internalType": "address",
          "name": "",
          "type": "address"
        }
      ],
      "stateMutability": "view",
      "type": "function"
    },
    {
      "inputs": [],
      "name": "price",
      "outputs": [
        {
          "internalType": "uint256",
          "name": "",
          "type": "uint256"
        }
      ],
      "stateMutability": "view",
      "type": "function"
    },
    {
      "inputs": [
        {
          "internalType": "uint256",
          "name": "_requestId",
          "type": "uint256"
        },
        {
          "internalType": "uint256[]",
          "name": "_randomWords",
          "type": "uint256[]"
        }
      ],
      "name": "rawFulfillRandomWords",
      "outputs": [],
      "stateMutability": "nonpayable",
      "type": "function"
    },
    {
      "inputs": [
        {
          "internalType": "address",
          "name": "participant",
          "type": "address"
        }
      ],
      "name": "refund",
      "outputs": [],
      "stateMutability": "nonpayable",
      "type": "function"
    },
    {
      "inputs": [],
      "name": "remainingTicketCount",
      "outputs": [
        {
          "internalType": "uint32",
          "name": "",
          "type": "uint32"
        }
      ],
      "stateMutability": "view",
      "type": "function"
    },
    {
      "inputs": [],
      "name": "renounceOwnership",
      "outputs": [],
      "stateMutability": "nonpayable",
      "type": "function"
    },
    {
      "inputs": [
        {
          "internalType": "uint256",
          "name": "",
          "type": "uint256"
        }
      ],
      "name": "requestIds",
      "outputs": [
        {
          "internalType": "uint256",
          "name": "",
          "type": "uint256"
        }
      ],
      "stateMutability": "view",
      "type": "function"
    },
    {
      "inputs": [
        {
          "internalType": "uint256",
          "name": "",
          "type": "uint256"
        }
      ],
      "name": "s_requests",
      "outputs": [
        {
          "internalType": "uint256",
          "name": "paid",
          "type": "uint256"
        },
        {
          "internalType": "bool",
          "name": "fulfilled",
          "type": "bool"
        }
      ],
      "stateMutability": "view",
      "type": "function"
    },
    {
      "inputs": [
        {
          "internalType": "address",
          "name": "from",
          "type": "address"
        },
        {
          "internalType": "address",
          "name": "to",
          "type": "address"
        },
        {
          "internalType": "uint256",
          "name": "tokenId",
          "type": "uint256"
        }
      ],
      "name": "safeTransferFrom",
      "outputs": [],
      "stateMutability": "nonpayable",
      "type": "function"
    },
    {
      "inputs": [
        {
          "internalType": "address",
          "name": "from",
          "type": "address"
        },
        {
          "internalType": "address",
          "name": "to",
          "type": "address"
        },
        {
          "internalType": "uint256",
          "name": "tokenId",
          "type": "uint256"
        },
        {
          "internalType": "bytes",
          "name": "data",
          "type": "bytes"
        }
      ],
      "name": "safeTransferFrom",
      "outputs": [],
      "stateMutability": "nonpayable",
      "type": "function"
    },
    {
      "inputs": [
        {
          "internalType": "address",
          "name": "operator",
          "type": "address"
        },
        {
          "internalType": "bool",
          "name": "approved",
          "type": "bool"
        }
      ],
      "name": "setApprovalForAll",
      "outputs": [],
      "stateMutability": "nonpayable",
      "type": "function"
    },
    {
      "inputs": [],
      "name": "startLottery",
      "outputs": [],
      "stateMutability": "nonpayable",
      "type": "function"
    },
    {
      "inputs": [
        {
          "internalType": "bytes4",
          "name": "interfaceId",
          "type": "bytes4"
        }
      ],
      "name": "supportsInterface",
      "outputs": [
        {
          "internalType": "bool",
          "name": "",
          "type": "bool"
        }
      ],
      "stateMutability": "view",
      "type": "function"
    },
    {
      "inputs": [],
      "name": "symbol",
      "outputs": [
        {
          "internalType": "string",
          "name": "",
          "type": "string"
        }
      ],
      "stateMutability": "view",
      "type": "function"
    },
    {
      "inputs": [],
      "name": "ticketCount",
      "outputs": [
        {
          "internalType": "uint256",
          "name": "",
          "type": "uint256"
        }
      ],
      "stateMutability": "view",
      "type": "function"
    },
    {
      "inputs": [],
      "name": "ticketType",
      "outputs": [
        {
          "internalType": "uint256",
          "name": "",
          "type": "uint256"
        }
      ],
      "stateMutability": "view",
      "type": "function"
    },
    {
      "inputs": [
        {
          "internalType": "uint256",
          "name": "tokenId",
          "type": "uint256"
        }
      ],
      "name": "tokenURI",
      "outputs": [
        {
          "internalType": "string",
          "name": "",
          "type": "string"
        }
      ],
      "stateMutability": "view",
      "type": "function"
    },
    {
      "inputs": [
        {
          "internalType": "address",
          "name": "from",
          "type": "address"
        },
        {
          "internalType": "address",
          "name": "to",
          "type": "address"
        },
        {
          "internalType": "uint256",
          "name": "tokenId",
          "type": "uint256"
        }
      ],
      "name": "transferFrom",
      "outputs": [],
      "stateMutability": "nonpayable",
      "type": "function"
    },
    {
      "inputs": [
        {
          "internalType": "address",
          "name": "newOwner",
          "type": "address"
        }
      ],
      "name": "transferOwnership",
      "outputs": [],
      "stateMutability": "nonpayable",
      "type": "function"
    },
    {
      "inputs": [],
      "name": "url",
      "outputs": [
        {
          "internalType": "string",
          "name": "",
          "type": "string"
        }
      ],
      "stateMutability": "view",
      "type": "function"
    },
    {
      "inputs": [
        {
          "internalType": "uint256",
          "name": "_amount",
          "type": "uint256"
        }
      ],
      "name": "withdrawLink",
      "outputs": [],
      "stateMutability": "nonpayable",
      "type": "function"
    },
    {
      "stateMutability": "payable",
      "type": "receive"
    }
  ],
  "bytecode": {
    "object": "0x610160604052600e80546001600160a01b03199081167384b9b910527ad5c03a9ca831909e21e236ea7b0617909155600f805490911673699d428ee890d55d56d5fc6e26290f3247a762bd179055601280546403004f588065ffffffffffff199091161790553480156200007257600080fd5b506040516200354c3803806200354c8339810160408190526200009591620002e4565b600e54600f546001600160a01b0391821691168a87896000620000b983826200044a565b506001620000c882826200044a565b5050506001600160a01b038116620000fa57604051631e4fbdf760e01b81526000600482015260240160405180910390fd5b6200010581620001b0565b5060016008556001600160a01b03918216608052811660a0523360c052891660e052610100889052610120879052610140849052600a6200014784826200044a565b50600c829055600b5560128054600e546c010000000000000000000000006001600160a01b03909116026001600160601b0363ffffffff9094166801000000000000000002939093166001600160401b0390911617919091179055506200051695505050505050565b600780546001600160a01b038381166001600160a01b0319831681179093556040519116919082907f8be0079c531659141344cd1fd0a4f28419497f9722a3daafe3b4186f6b6457e090600090a35050565b80516001600160a01b03811681146200021a57600080fd5b919050565b634e487b7160e01b600052604160045260246000fd5b600082601f8301126200024757600080fd5b81516001600160401b03808211156200026457620002646200021f565b604051601f8301601f19908116603f011681019082821181831017156200028f576200028f6200021f565b81604052838152602092508683858801011115620002ac57600080fd5b600091505b83821015620002d05785820183015181830184015290820190620002b1565b600093810190920192909252949350505050565b60008060008060008060008060006101208a8c0312156200030457600080fd5b6200030f8a62000202565b60208b015160408c015160608d0151929b5090995097506001600160401b03808211156200033c57600080fd5b6200034a8d838e0162000235565b975060808c01519150808211156200036157600080fd5b6200036f8d838e0162000235565b965060a08c0151955060c08c01519150808211156200038d57600080fd5b506200039c8c828d0162000235565b93505060e08a015191506101008a015190509295985092959850929598565b600181811c90821680620003d057607f821691505b602082108103620003f157634e487b7160e01b600052602260045260246000fd5b50919050565b601f8211156200044557600081815260208120601f850160051c81016020861015620004205750805b601f850160051c820191505b8181101562000441578281556001016200042c565b5050505b505050565b81516001600160401b038111156200046657620004666200021f565b6200047e81620004778454620003bb565b84620003f7565b602080601f831160018114620004b657600084156200049d5750858301515b600019600386901b1c1916600185901b17855562000441565b600085815260208120601f198616915b82811015620004e757888601518255948401946001909101908401620004c6565b5085821015620005065787850151600019600388901b60f8161c191681555b5050505050600190811b01905550565b60805160a05160c05160e051610100516101205161014051612f2562000627600039600081816105db01528181610e48015281816115be01528181611649015281816118cb015261195601526000818161039c01528181610f5501528181611142015281816114f701528181611670015281816118040152818161197d0152611ba001526000818161069b01528181610f77015281816111640152818161151901528181611692015281816118260152818161199f0152611bc10152600081816104af0152818161159901528181611614015281816118a60152611921015260006106cf015260008181610ac2015281816112d40152818161224c0152612355015260006122220152612f256000f3fe6080604052600436106102285760003560e01c80638796ba8c11610123578063c83dd231116100ab578063f2fde38b1161006f578063f2fde38b1461074f578063f70e97b71461076f578063fa89401a14610785578063fc2a88c3146107a5578063fc7e286d146107bb57600080fd5b8063c83dd231146106bd578063c87b56dd146106f1578063cfbd900f14610711578063d0e30db014610727578063e985e9c51461072f57600080fd5b8063a035b1fe116100f2578063a035b1fe146105c9578063a168fa89146105fd578063a22cb46514610649578063b88d4fde14610669578063bd73f75f1461068957600080fd5b80638796ba8c146105465780638da5cb5b1461056657806395d89b41146105845780639d9ca28d1461059957600080fd5b806323b872dd116101b15780636120326511610175578063612032651461049d5780636352211e146104d157806370a08231146104f1578063715018a6146105115780637a8042bd1461052657600080fd5b806323b872dd1461040157806342842e0e146104215780635476d0de146104415780635600f04f1461046157806357970e931461047657600080fd5b8063095ea7b3116101f8578063095ea7b3146103475780630bdeecbd146103695780630c737add1461038a578063160344e2146103cc5780631fe543e3146103e157600080fd5b80620998541461027f57806301ffc9a7146102bd57806306fdde03146102ed578063081812fc1461030f57600080fd5b3661027a5760405162461bcd60e51b815260206004820152601b60248201527f446972656374207061796d656e7473206e6f7420616c6c6f776564000000000060448201526064015b60405180910390fd5b600080fd5b34801561028b57600080fd5b506012546102a390600160401b900463ffffffff1681565b60405163ffffffff90911681526020015b60405180910390f35b3480156102c957600080fd5b506102dd6102d836600461285c565b6107e8565b60405190151581526020016102b4565b3480156102f957600080fd5b506103026107f9565b6040516102b491906128c9565b34801561031b57600080fd5b5061032f61032a3660046128dc565b61088b565b6040516001600160a01b0390911681526020016102b4565b34801561035357600080fd5b50610367610362366004612911565b6108b4565b005b34801561037557600080fd5b506012546102dd90600160381b900460ff1681565b34801561039657600080fd5b506103be7f000000000000000000000000000000000000000000000000000000000000000081565b6040519081526020016102b4565b3480156103d857600080fd5b506103676108c3565b3480156103ed57600080fd5b506103676103fc366004612982565b610ab7565b34801561040d57600080fd5b5061036761041c366004612a34565b610b39565b34801561042d57600080fd5b5061036761043c366004612a34565b610bc4565b34801561044d57600080fd5b5061032f61045c3660046128dc565b610be4565b34801561046d57600080fd5b50610302610c0e565b34801561048257600080fd5b5060125461032f90600160601b90046001600160a01b031681565b3480156104a957600080fd5b5061032f7f000000000000000000000000000000000000000000000000000000000000000081565b3480156104dd57600080fd5b5061032f6104ec3660046128dc565b610c9c565b3480156104fd57600080fd5b506103be61050c366004612a70565b610ca7565b34801561051d57600080fd5b50610367610cef565b34801561053257600080fd5b506103676105413660046128dc565b610d01565b34801561055257600080fd5b506103be6105613660046128dc565b610dc5565b34801561057257600080fd5b506007546001600160a01b031661032f565b34801561059057600080fd5b50610302610de6565b3480156105a557600080fd5b506102dd6105b4366004612a70565b60156020526000908152604090205460ff1681565b3480156105d557600080fd5b506103be7f000000000000000000000000000000000000000000000000000000000000000081565b34801561060957600080fd5b506106346106183660046128dc565b6014602052600090815260409020805460019091015460ff1682565b604080519283529015156020830152016102b4565b34801561065557600080fd5b50610367610664366004612a99565b610df5565b34801561067557600080fd5b50610367610684366004612ad0565b610e00565b34801561069557600080fd5b506103be7f000000000000000000000000000000000000000000000000000000000000000081565b3480156106c957600080fd5b5061032f7f000000000000000000000000000000000000000000000000000000000000000081565b3480156106fd57600080fd5b5061030261070c3660046128dc565b610e17565b34801561071d57600080fd5b506103be600c5481565b610367610e22565b34801561073b57600080fd5b506102dd61074a366004612b90565b610fc5565b34801561075b57600080fd5b5061036761076a366004612a70565b610ff3565b34801561077b57600080fd5b506103be600b5481565b34801561079157600080fd5b506103676107a0366004612a70565b61102e565b3480156107b157600080fd5b506103be60115481565b3480156107c757600080fd5b506103be6107d6366004612a70565b60136020526000908152604090205481565b60006107f3826111b3565b92915050565b60606000805461080890612bc3565b80601f016020809104026020016040519081016040528092919081815260200182805461083490612bc3565b80156108815780601f1061085657610100808354040283529160200191610881565b820191906000526020600020905b81548152906001019060200180831161086457829003601f168201915b5050505050905090565b6000610896826111d8565b506000828152600460205260409020546001600160a01b03166107f3565b6108bf828233611211565b5050565b6108cb61121e565b600b54421161091c5760405162461bcd60e51b815260206004820152601760248201527f4c6f7474657279206e6f742073746172746564207965740000000000000000006044820152606401610271565b6012546601000000000000900460ff16156109795760405162461bcd60e51b815260206004820152601960248201527f4c6f74746572792068617320616c726561647920656e646564000000000000006044820152606401610271565b600d546109c85760405162461bcd60e51b815260206004820152601e60248201527f4e6f207061727469636970616e747320696e20746865206c6f747465727900006044820152606401610271565b6012546040516370a0823160e01b8152306004820152600091600160601b90046001600160a01b0316906370a0823190602401602060405180830381865afa158015610a18573d6000803e3d6000fd5b505050506040513d601f19601f82011682018060405250810190610a3c9190612bfd565b9050670de0b6b3a7640000811015610a885760405162461bcd60e51b815260206004820152600f60248201526e4e6f7420656e6f756768204c494e4b60881b6044820152606401610271565b600c54600d541115610aa257610a9c611248565b50610aaa565b610aaa6114b3565b50610ab56001600855565b565b336001600160a01b037f00000000000000000000000000000000000000000000000000000000000000001614610b2f5760405162461bcd60e51b815260206004820152601f60248201527f6f6e6c792056524620563220777261707065722063616e2066756c66696c6c006044820152606401610271565b6108bf828261170d565b6001600160a01b038216610b6357604051633250574960e11b815260006004820152602401610271565b6000610b70838333611c55565b9050836001600160a01b0316816001600160a01b031614610bbe576040516364283d7b60e01b81526001600160a01b0380861660048301526024820184905282166044820152606401610271565b50505050565b610bdf83838360405180602001604052806000815250610e00565b505050565b600d8181548110610bf457600080fd5b6000918252602090912001546001600160a01b0316905081565b600a8054610c1b90612bc3565b80601f0160208091040260200160405190810160405280929190818152602001828054610c4790612bc3565b8015610c945780601f10610c6957610100808354040283529160200191610c94565b820191906000526020600020905b815481529060010190602001808311610c7757829003601f168201915b505050505081565b60006107f3826111d8565b60006001600160a01b038216610cd3576040516322718ad960e21b815260006004820152602401610271565b506001600160a01b031660009081526003602052604090205490565b610cf7611d4e565b610ab56000611d7b565b610d09611d4e565b60125460405163a9059cbb60e01b815233600482015260248101839052600160601b9091046001600160a01b03169063a9059cbb906044016020604051808303816000875af1158015610d60573d6000803e3d6000fd5b505050506040513d601f19601f82011682018060405250810190610d849190612c16565b610dc25760405162461bcd60e51b815260206004820152600f60248201526e151c985b9cd9995c8819985a5b1959608a1b6044820152606401610271565b50565b60108181548110610dd557600080fd5b600091825260209091200154905081565b60606001805461080890612bc3565b6108bf338383611dcd565b610e0b848484610b39565b610bbe84848484611e6c565b60606107f382611f95565b600b5480421115610e4657604051634cd29d0960e01b815260040160405180910390fd5b7f00000000000000000000000000000000000000000000000000000000000000003414610eb55760405162461bcd60e51b815260206004820152601e60248201527f4465706f736974206d757374206265206571207469636b6574507269636500006044820152606401610271565b3360009081526013602052604090205415610ee357604051634cbff32360e11b815260040160405180910390fd5b600d8054600181019091557fd7b6990105719101dabeb77144f2a3385c8033acd3af97e9423a695e81ad1eb50180546001600160a01b0319163390811790915560009081526013602052604081208054349290610f41908490612c49565b9091555050604080513381523460208201527f0000000000000000000000000000000000000000000000000000000000000000917f0000000000000000000000000000000000000000000000000000000000000000917fbb5116f7c5baded95ebecb639657a3ca3eb8ce830fc866168555f40e9838aa95910160405180910390a350565b6001600160a01b03918216600090815260056020908152604080832093909416825291909152205460ff1690565b610ffb611d4e565b6001600160a01b03811661102557604051631e4fbdf760e01b815260006004820152602401610271565b610dc281611d7b565b6001600160a01b0381166000908152601360205260409020548061108b5760405162461bcd60e51b8152602060048201526014602482015273139bc819195c1bdcda5d081d1bc81c99599d5b9960621b6044820152606401610271565b601254600160381b900460ff166110e45760405162461bcd60e51b815260206004820152601a60248201527f546865206c6f747465727920697320696e2070726f67726573730000000000006044820152606401610271565b6001600160a01b0382166000818152601360205260408082208290555183156108fc0291849190818181858888f19350505050158015611128573d6000803e3d6000fd5b50604080516001600160a01b0384168152602081018390527f0000000000000000000000000000000000000000000000000000000000000000917f0000000000000000000000000000000000000000000000000000000000000000917f5760598089661e85377df061128b09cf866f4ca83b8bdb788ee2cac6b312da94910160405180910390a35050565b60006001600160e01b03198216632483248360e11b14806107f357506107f3826120a6565b6000818152600260205260408120546001600160a01b0316806107f357604051637e27328960e01b815260048101849052602401610271565b610bdf83838360016120f6565b60026008540361124157604051633ee5aeb560e01b815260040160405180910390fd5b6002600855565b600080600a601260089054906101000a900463ffffffff1663ffffffff161161128057601254600160401b900463ffffffff16611283565b600a5b6012549091506112a79063ffffffff811690640100000000900461ffff16836121fc565b6040805160608101918290526012546310c1b4d560e21b90925263ffffffff9091166064820152909250807f00000000000000000000000000000000000000000000000000000000000000006001600160a01b0316634306d35460848301602060405180830381865afa158015611322573d6000803e3d6000fd5b505050506040513d601f19601f820116820180604052508101906113469190612bfd565b81526000602082015260408051600a80825261016082018352919092019190816020016020820280368337019050509052600083815260146020908152604091829020835181558382015160018201805460ff19169115159190911790559183015180516113ba92600285019201906127e6565b5050601080546001810182556000919091527f1b6847dc741a1b0cd08d278845f9d819d87b734759afb55fe2de5cb82a9ae6720183905550601182905560128054829190600890611419908490600160401b900463ffffffff16612c5c565b92506101000a81548163ffffffff021916908363ffffffff160217905550601260089054906101000a900463ffffffff1663ffffffff16600003611471576012805466ff000000000000191666010000000000001790555b6040805183815263ffffffff831660208201527f4461b2777889df5916f85d2cecf8eafcc1bb8f0ecee41ddca4b9497a07ad4c96910160405180910390a15090565b60005b600d548110156116ef576000600d82815481106114d5576114d5612c80565b600091825260209182902001546040516001600160a01b0390911680825292507f0000000000000000000000000000000000000000000000000000000000000000917f0000000000000000000000000000000000000000000000000000000000000000917f4ee3936676cf241a4d8ad30d25af1aa73ce1dbe84d17c8824d4b5cc26c34cdaa910160405180910390a36001600160a01b0380821660009081526013602090815260408083208390556015909152808220805460ff19166001179055517f0000000000000000000000000000000000000000000000000000000000000000909216917f000000000000000000000000000000000000000000000000000000000000000080156108fc0292909190818181858888f19350505050158015611604573d6000803e3d6000fd5b5061160e816123d5565b604080517f00000000000000000000000000000000000000000000000000000000000000006001600160a01b039081168252831660208201527f00000000000000000000000000000000000000000000000000000000000000008183015290517f0000000000000000000000000000000000000000000000000000000000000000917f0000000000000000000000000000000000000000000000000000000000000000917fa9da42c6927041d56acc2d4ffb558cbb663c3193365eaa60f80f43836e78861d9181900360600190a350806116e781612c96565b9150506114b6565b506012805467ffff0000000000001916670101000000000000179055565b60008281526014602052604090205461175c5760405162461bcd60e51b815260206004820152601160248201527014995c5d595cdd081b9bdd08199bdd5b99607a1b6044820152606401610271565b60008281526014602090815260409091206001818101805460ff191690911790558251611791926002909201918401906127e6565b50805160005b818110156119fe576000600d805490508483815181106117b9576117b9612c80565b60200260200101516117cb9190612caf565b90506000600d82815481106117e2576117e2612c80565b600091825260209182902001546040516001600160a01b0390911680825292507f0000000000000000000000000000000000000000000000000000000000000000917f0000000000000000000000000000000000000000000000000000000000000000917f4ee3936676cf241a4d8ad30d25af1aa73ce1dbe84d17c8824d4b5cc26c34cdaa910160405180910390a36001600160a01b0380821660009081526013602090815260408083208390556015909152808220805460ff19166001179055517f0000000000000000000000000000000000000000000000000000000000000000909216917f000000000000000000000000000000000000000000000000000000000000000080156108fc0292909190818181858888f19350505050158015611911573d6000803e3d6000fd5b5061191b816123d5565b604080517f00000000000000000000000000000000000000000000000000000000000000006001600160a01b039081168252831660208201527f00000000000000000000000000000000000000000000000000000000000000008183015290517f0000000000000000000000000000000000000000000000000000000000000000917f0000000000000000000000000000000000000000000000000000000000000000917fa9da42c6927041d56acc2d4ffb558cbb663c3193365eaa60f80f43836e78861d9181900360600190a3505080806119f690612c96565b915050611797565b50601254600160401b900463ffffffff16600003611a2e576012805467ff000000000000001916600160381b1790555b600083815260146020526040908190205490517f85c29d2ad0f1a812f307411c654a2fbfdd3304c770203c84643b0a726f491eea91611a709186918691612cd1565b60405180910390a160005b600d54811015610bbe57600060136000600d8481548110611a9e57611a9e612c80565b60009182526020808320909101546001600160a01b031683528201929092526040019020541115611c4357600060136000600d8481548110611ae257611ae2612c80565b60009182526020808320909101546001600160a01b03168352820192909252604001812054600d805491935060139183919086908110611b2457611b24612c80565b60009182526020808320909101546001600160a01b03168352820192909252604001902055600d805483908110611b5d57611b5d612c80565b60009182526020822001546040516001600160a01b039091169183156108fc02918491818181858888f19350505050158015611b9d573d6000803e3d6000fd5b507f00000000000000000000000000000000000000000000000000000000000000007f00000000000000000000000000000000000000000000000000000000000000007fe7d940172a728ff1d3be17ee88351c67291e24ec6cfa5ec2b4635fca5e1addd2600d8581548110611c1457611c14612c80565b60009182526020918290200154604080516001600160a01b0390921682529181018690520160405180910390a3505b80611c4d81612c96565b915050611a7b565b6000828152600260205260408120546001600160a01b0390811690831615611c8257611c8281848661248a565b6001600160a01b03811615611cc057611c9f6000856000806120f6565b6001600160a01b038116600090815260036020526040902080546000190190555b6001600160a01b03851615611cef576001600160a01b0385166000908152600360205260409020805460010190555b60008481526002602052604080822080546001600160a01b0319166001600160a01b0389811691821790925591518793918516917fddf252ad1be2c89b69c2b068fc378daa952ba7f163c4a11628f55a4df523b3ef91a4949350505050565b6007546001600160a01b03163314610ab55760405163118cdaa760e01b8152336004820152602401610271565b600780546001600160a01b038381166001600160a01b0319831681179093556040519116919082907f8be0079c531659141344cd1fd0a4f28419497f9722a3daafe3b4186f6b6457e090600090a35050565b6001600160a01b038216611dff57604051630b61174360e31b81526001600160a01b0383166004820152602401610271565b6001600160a01b03838116600081815260056020908152604080832094871680845294825291829020805460ff191686151590811790915591519182527f17307eab39ab6107e8899845ad3d59bd9653f200f220920489ca2b5937696c31910160405180910390a3505050565b6001600160a01b0383163b15610bbe57604051630a85bd0160e11b81526001600160a01b0384169063150b7a0290611eae903390889087908790600401612d28565b6020604051808303816000875af1925050508015611ee9575060408051601f3d908101601f19168201909252611ee691810190612d65565b60015b611f52573d808015611f17576040519150601f19603f3d011682016040523d82523d6000602084013e611f1c565b606091505b508051600003611f4a57604051633250574960e11b81526001600160a01b0385166004820152602401610271565b805181602001fd5b6001600160e01b03198116630a85bd0160e11b14611f8e57604051633250574960e11b81526001600160a01b0385166004820152602401610271565b5050505050565b6060611fa0826111d8565b5060008281526006602052604081208054611fba90612bc3565b80601f0160208091040260200160405190810160405280929190818152602001828054611fe690612bc3565b80156120335780601f1061200857610100808354040283529160200191612033565b820191906000526020600020905b81548152906001019060200180831161201657829003601f168201915b50505050509050600061205160408051602081019091526000815290565b90508051600003612063575092915050565b81511561209557808260405160200161207d929190612d82565b60405160208183030381529060405292505050919050565b61209e846124ee565b949350505050565b60006001600160e01b031982166380ac58cd60e01b14806120d757506001600160e01b03198216635b5e139f60e01b145b806107f357506301ffc9a760e01b6001600160e01b03198316146107f3565b808061210a57506001600160a01b03821615155b156121cc57600061211a846111d8565b90506001600160a01b038316158015906121465750826001600160a01b0316816001600160a01b031614155b801561215957506121578184610fc5565b155b156121825760405163a9fbf51f60e01b81526001600160a01b0384166004820152602401610271565b81156121ca5783856001600160a01b0316826001600160a01b03167f8c5be1e5ebec7d5bd14f71427d1e84f3dd0314c0f7b2291e5b200ac8c7c3b92560405160405180910390a45b505b5050600090815260046020526040902080546001600160a01b0319166001600160a01b0392909216919091179055565b6040516310c1b4d560e21b815263ffffffff841660048201526000906001600160a01b037f0000000000000000000000000000000000000000000000000000000000000000811691634000aea0917f00000000000000000000000000000000000000000000000000000000000000009190821690634306d35490602401602060405180830381865afa158015612296573d6000803e3d6000fd5b505050506040513d601f19601f820116820180604052508101906122ba9190612bfd565b6040805163ffffffff808b16602083015261ffff8a169282019290925290871660608201526080016040516020818303038152906040526040518463ffffffff1660e01b815260040161230f93929190612db1565b6020604051808303816000875af115801561232e573d6000803e3d6000fd5b505050506040513d601f19601f820116820180604052508101906123529190612c16565b507f00000000000000000000000000000000000000000000000000000000000000006001600160a01b031663fc2a88c36040518163ffffffff1660e01b8152600401602060405180830381865afa1580156123b1573d6000803e3d6000fd5b505050506040513d601f19601f8201168201806040525081019061209e9190612bfd565b60098054600091826123e683612c96565b9190505590506123f68282612563565b6108bf81600a805461240790612bc3565b80601f016020809104026020016040519081016040528092919081815260200182805461243390612bc3565b80156124805780601f1061245557610100808354040283529160200191612480565b820191906000526020600020905b81548152906001019060200180831161246357829003601f168201915b50505050506125c8565b612495838383612618565b610bdf576001600160a01b0383166124c357604051637e27328960e01b815260048101829052602401610271565b60405163177e802f60e01b81526001600160a01b038316600482015260248101829052604401610271565b60606124f9826111d8565b50600061251160408051602081019091526000815290565b90506000815111612531576040518060200160405280600081525061255c565b8061253b8461267b565b60405160200161254c929190612d82565b6040516020818303038152906040525b9392505050565b6001600160a01b03821661258d57604051633250574960e11b815260006004820152602401610271565b600061259b83836000611c55565b90506001600160a01b03811615610bdf576040516339e3563760e11b815260006004820152602401610271565b60008281526006602052604090206125e08282612e2f565b506040518281527ff8e1a15aba9398e019f0b49df1a4fde98ee17ae345cb5f6b5e2c27f5033e8ce79060200160405180910390a15050565b60006001600160a01b0383161580159061209e5750826001600160a01b0316846001600160a01b0316148061265257506126528484610fc5565b8061209e5750506000908152600460205260409020546001600160a01b03908116911614919050565b606060006126888361270e565b600101905060008167ffffffffffffffff8111156126a8576126a861293b565b6040519080825280601f01601f1916602001820160405280156126d2576020820181803683370190505b5090508181016020015b600019016f181899199a1a9b1b9c1cb0b131b232b360811b600a86061a8153600a85049450846126dc57509392505050565b60008072184f03e93ff9f4daa797ed6e38ed64bf6a1f0160401b831061274d5772184f03e93ff9f4daa797ed6e38ed64bf6a1f0160401b830492506040015b6d04ee2d6d415b85acef81000000008310612779576d04ee2d6d415b85acef8100000000830492506020015b662386f26fc10000831061279757662386f26fc10000830492506010015b6305f5e10083106127af576305f5e100830492506008015b61271083106127c357612710830492506004015b606483106127d5576064830492506002015b600a83106107f35760010192915050565b828054828255906000526020600020908101928215612821579160200282015b82811115612821578251825591602001919060010190612806565b5061282d929150612831565b5090565b5b8082111561282d5760008155600101612832565b6001600160e01b031981168114610dc257600080fd5b60006020828403121561286e57600080fd5b813561255c81612846565b60005b8381101561289457818101518382015260200161287c565b50506000910152565b600081518084526128b5816020860160208601612879565b601f01601f19169290920160200192915050565b60208152600061255c602083018461289d565b6000602082840312156128ee57600080fd5b5035919050565b80356001600160a01b038116811461290c57600080fd5b919050565b6000806040838503121561292457600080fd5b61292d836128f5565b946020939093013593505050565b634e487b7160e01b600052604160045260246000fd5b604051601f8201601f1916810167ffffffffffffffff8111828210171561297a5761297a61293b565b604052919050565b6000806040838503121561299557600080fd5b8235915060208084013567ffffffffffffffff808211156129b557600080fd5b818601915086601f8301126129c957600080fd5b8135818111156129db576129db61293b565b8060051b91506129ec848301612951565b8181529183018401918481019089841115612a0657600080fd5b938501935b83851015612a2457843582529385019390850190612a0b565b8096505050505050509250929050565b600080600060608486031215612a4957600080fd5b612a52846128f5565b9250612a60602085016128f5565b9150604084013590509250925092565b600060208284031215612a8257600080fd5b61255c826128f5565b8015158114610dc257600080fd5b60008060408385031215612aac57600080fd5b612ab5836128f5565b91506020830135612ac581612a8b565b809150509250929050565b60008060008060808587031215612ae657600080fd5b612aef856128f5565b93506020612afe8187016128f5565b935060408601359250606086013567ffffffffffffffff80821115612b2257600080fd5b818801915088601f830112612b3657600080fd5b813581811115612b4857612b4861293b565b612b5a601f8201601f19168501612951565b91508082528984828501011115612b7057600080fd5b808484018584013760008482840101525080935050505092959194509250565b60008060408385031215612ba357600080fd5b612bac836128f5565b9150612bba602084016128f5565b90509250929050565b600181811c90821680612bd757607f821691505b602082108103612bf757634e487b7160e01b600052602260045260246000fd5b50919050565b600060208284031215612c0f57600080fd5b5051919050565b600060208284031215612c2857600080fd5b815161255c81612a8b565b634e487b7160e01b600052601160045260246000fd5b808201808211156107f3576107f3612c33565b63ffffffff828116828216039080821115612c7957612c79612c33565b5092915050565b634e487b7160e01b600052603260045260246000fd5b600060018201612ca857612ca8612c33565b5060010190565b600082612ccc57634e487b7160e01b600052601260045260246000fd5b500690565b6000606082018583526020606081850152818651808452608086019150828801935060005b81811015612d1257845183529383019391830191600101612cf6565b5050809350505050826040830152949350505050565b6001600160a01b0385811682528416602082015260408101839052608060608201819052600090612d5b9083018461289d565b9695505050505050565b600060208284031215612d7757600080fd5b815161255c81612846565b60008351612d94818460208801612879565b835190830190612da8818360208801612879565b01949350505050565b60018060a01b0384168152826020820152606060408201526000612dd8606083018461289d565b95945050505050565b601f821115610bdf57600081815260208120601f850160051c81016020861015612e085750805b601f850160051c820191505b81811015612e2757828155600101612e14565b505050505050565b815167ffffffffffffffff811115612e4957612e4961293b565b612e5d81612e578454612bc3565b84612de1565b602080601f831160018114612e925760008415612e7a5750858301515b600019600386901b1c1916600185901b178555612e27565b600085815260208120601f198616915b82811015612ec157888601518255948401946001909101908401612ea2565b5085821015612edf5787850151600019600388901b60f8161c191681555b5050505050600190811b0190555056fea26469706673582212202ef4a29be21b9debfe6c7e4b3f4933f9e214a2f8a1175029176ea2785353105364736f6c63430008140033",
    "linkReferences": {}
  },
  "methodIdentifiers": {
    "Factory()": "c83dd231",
    "allBuyer(uint256)": "5476d0de",
    "approve(address,uint256)": "095ea7b3",
    "balanceOf(address)": "70a08231",
    "completeDraw()": "0bdeecbd",
    "concertId()": "bd73f75f",
    "ddl()": "f70e97b7",
    "deposit()": "d0e30db0",
    "deposits(address)": "fc7e286d",
    "getApproved(uint256)": "081812fc",
    "isApprovedForAll(address,address)": "e985e9c5",
    "isWinner(address)": "9d9ca28d",
    "lastRequestId()": "fc2a88c3",
    "linkToken()": "57970e93",
    "name()": "06fdde03",
    "organizer()": "61203265",
    "owner()": "8da5cb5b",
    "ownerOf(uint256)": "6352211e",
    "price()": "a035b1fe",
    "rawFulfillRandomWords(uint256,uint256[])": "1fe543e3",
    "refund(address)": "fa89401a",
    "remainingTicketCount()": "00099854",
    "renounceOwnership()": "715018a6",
    "requestIds(uint256)": "8796ba8c",
    "s_requests(uint256)": "a168fa89",
    "safeTransferFrom(address,address,uint256)": "42842e0e",
    "safeTransferFrom(address,address,uint256,bytes)": "b88d4fde",
    "setApprovalForAll(address,bool)": "a22cb465",
    "startLottery()": "160344e2",
    "supportsInterface(bytes4)": "01ffc9a7",
    "symbol()": "95d89b41",
    "ticketCount()": "cfbd900f",
    "ticketType()": "0c737add",
    "tokenURI(uint256)": "c87b56dd",
    "transferFrom(address,address,uint256)": "23b872dd",
    "transferOwnership(address)": "f2fde38b",
    "url()": "5600f04f",
    "withdrawLink(uint256)": "7a8042bd"
  },
  "id": 44
}