{"abi":[{"type":"receive","stateMutability":"payable"},{"type":"function","name":"allEscrows","inputs":[{"name":"","type":"uint256","internalType":"uint256"}],"outputs":[{"name":"","type":"address","internalType":"address"}],"stateMutability":"view"},{"type":"function","name":"createEscrow","inputs":[{"name":"_organizer","type":"address","internalType":"address"},{"name":"_concertId","type":"string","internalType":"string"},{"name":"_ticketType","type":"uint256","internalType":"uint256"},{"name":"_typeName","type":"string","internalType":"string"},{"name":"_name","type":"string","internalType":"string"},{"name":"_price","type":"uint256","internalType":"uint256"},{"name":"_url","type":"string","internalType":"string"},{"name":"_ticketCount","type":"uint256","internalType":"uint256"},{"name":"_ddl","type":"uint256","internalType":"uint256"}],"outputs":[{"name":"escrowAddress","type":"address","internalType":"address"}],"stateMutability":"nonpayable"},{"type":"function","name":"escrows","inputs":[{"name":"","type":"uint256","internalType":"uint256"}],"outputs":[{"name":"","type":"address","internalType":"address"}],"stateMutability":"view"},{"type":"function","name":"getEscrowAddressByTicketType","inputs":[{"name":"ticketType","type":"uint256","internalType":"uint256"}],"outputs":[{"name":"","type":"address","internalType":"address"}],"stateMutability":"view"},{"type":"function","name":"isRegistered","inputs":[{"name":"","type":"address","internalType":"address"}],"outputs":[{"name":"","type":"bool","internalType":"bool"}],"stateMutability":"view"},{"type":"event","name":"EscrowCreated","inputs":[{"name":"concertId","type":"string","indexed":false,"internalType":"string"},{"name":"ticketType","type":"uint256","indexed":true,"internalType":"uint256"},{"name":"escrowAddress","type":"address","indexed":false,"internalType":"address"}],"anonymous":false},{"type":"error","name":"TicketTypeAlreadyExists","inputs":[]}],"bytecode":{"object":"0x608060405234801561001057600080fd5b50613ba6806100206000396000f3fe608060405260043610620000545760003560e01c8063012f52ee14620000ab57806312f4a22814620001025780631d3afee61462000127578063bb9faf66146200014c578063c3c5a547146200018657600080fd5b36620000a65760405162461bcd60e51b815260206004820152601b60248201527f446972656374207061796d656e7473206e6f7420616c6c6f7765640000000000604482015260640160405180910390fd5b600080fd5b348015620000b857600080fd5b50620000e5620000ca36600462000355565b6001602052600090815260409020546001600160a01b031681565b6040516001600160a01b0390911681526020015b60405180910390f35b3480156200010f57600080fd5b50620000e56200012136600462000437565b620001cb565b3480156200013457600080fd5b50620000e56200014636600462000355565b6200031c565b3480156200015957600080fd5b50620000e56200016b36600462000355565b6000908152600160205260409020546001600160a01b031690565b3480156200019357600080fd5b50620001ba620001a53660046200052b565b60026020526000908152604090205460ff1681565b6040519015158152602001620000f9565b60008781526001602052604081205488906001600160a01b031615620002045760405163bc23d57f60e01b815260040160405180910390fd5b60008b8b8b8b8b8b8b8b8b6040516200021d9062000347565b620002319998979695949392919062000598565b604051809103906000f0801580156200024e573d6000803e3d6000fd5b5060008b815260016020818152604080842080546001600160a01b0387166001600160a01b031991821681179092558186526002909352818520805460ff191685179055845493840185559380527f290decd9548b62a8d60345a988386fc84ba6bc95484008f6362f93160ef3e5639092018054909116909217909155519093508391508a907fed6859b036a1de681a479ac0a9a650bc1c5b8a11968fb44dc2c151eb1a3d8bb39062000305908e90859062000627565b60405180910390a250509998505050505050505050565b600081815481106200032d57600080fd5b6000918252602090912001546001600160a01b0316905081565b61351d806200065483390190565b6000602082840312156200036857600080fd5b5035919050565b80356001600160a01b03811681146200038757600080fd5b919050565b634e487b7160e01b600052604160045260246000fd5b600082601f830112620003b457600080fd5b813567ffffffffffffffff80821115620003d257620003d26200038c565b604051601f8301601f19908116603f01168101908282118183101715620003fd57620003fd6200038c565b816040528381528660208588010111156200041757600080fd5b836020870160208301376000602085830101528094505050505092915050565b60008060008060008060008060006101208a8c0312156200045757600080fd5b620004628a6200036f565b985060208a013567ffffffffffffffff808211156200048057600080fd5b6200048e8d838e01620003a2565b995060408c0135985060608c0135915080821115620004ac57600080fd5b620004ba8d838e01620003a2565b975060808c0135915080821115620004d157600080fd5b620004df8d838e01620003a2565b965060a08c0135955060c08c0135915080821115620004fd57600080fd5b506200050c8c828d01620003a2565b93505060e08a013591506101008a013590509295985092959850929598565b6000602082840312156200053e57600080fd5b62000549826200036f565b9392505050565b6000815180845260005b8181101562000578576020818501810151868301820152016200055a565b506000602082860101526020601f19601f83011685010191505092915050565b6001600160a01b038a16815261012060208201819052600090620005bf8382018c62000550565b90508960408401528281036060840152620005db818a62000550565b90508281036080840152620005f1818962000550565b90508660a084015282810360c08401526200060d818762000550565b60e084019590955250506101000152979650505050505050565b6040815260006200063c604083018562000550565b905060018060a01b0383166020830152939250505056fe610140604052601080546001600160a01b03199081167384b9b910527ad5c03a9ca831909e21e236ea7b06179091556011805490911673699d428ee890d55d56d5fc6e26290f3247a762bd179055601480546403001e848065ffffffffffff199091161790553480156200007257600080fd5b506040516200351d3803806200351d8339810160408190526200009591620003a0565b6010546011546001600160a01b0391821691168a806000898b82620000bb838262000523565b506001620000ca828262000523565b5050506001600160a01b038216620001295760405162461bcd60e51b815260206004820152601860248201527f43616e6e6f7420736574206f776e657220746f207a65726f000000000000000060448201526064015b60405180910390fd5b600780546001600160a01b0319166001600160a01b03848116919091179091558116156200015c576200015c8162000212565b50506001600955506001600160a01b03918216608052811660a0523360c052891660e052600b6200018e898262000523565b50610100879052610120849052600c620001a9848262000523565b50600e829055600d55601480546010546c010000000000000000000000006001600160a01b03909116026001600160601b0363ffffffff9094166801000000000000000002939093166001600160401b039091161791909117905550620005ef95505050505050565b336001600160a01b038216036200026c5760405162461bcd60e51b815260206004820152601760248201527f43616e6e6f74207472616e7366657220746f2073656c66000000000000000000604482015260640162000120565b600880546001600160a01b0319166001600160a01b03838116918217909255600754604051919216907fed8889f560326eb138920d842192f0eb3dd22b4f139c87a2c57538e05bae127890600090a350565b80516001600160a01b0381168114620002d657600080fd5b919050565b634e487b7160e01b600052604160045260246000fd5b600082601f8301126200030357600080fd5b81516001600160401b0380821115620003205762000320620002db565b604051601f8301601f19908116603f011681019082821181831017156200034b576200034b620002db565b816040528381526020925086838588010111156200036857600080fd5b600091505b838210156200038c57858201830151818301840152908201906200036d565b600093810190920192909252949350505050565b60008060008060008060008060006101208a8c031215620003c057600080fd5b620003cb8a620002be565b60208b01519099506001600160401b0380821115620003e957600080fd5b620003f78d838e01620002f1565b995060408c0151985060608c01519150808211156200041557600080fd5b620004238d838e01620002f1565b975060808c01519150808211156200043a57600080fd5b620004488d838e01620002f1565b965060a08c0151955060c08c01519150808211156200046657600080fd5b50620004758c828d01620002f1565b93505060e08a015191506101008a015190509295985092959850929598565b600181811c90821680620004a957607f821691505b602082108103620004ca57634e487b7160e01b600052602260045260246000fd5b50919050565b601f8211156200051e57600081815260208120601f850160051c81016020861015620004f95750805b601f850160051c820191505b818110156200051a5782815560010162000505565b5050505b505050565b81516001600160401b038111156200053f576200053f620002db565b620005578162000550845462000494565b84620004d0565b602080601f8311600181146200058f5760008415620005765750858301515b600019600386901b1c1916600185901b1785556200051a565b600085815260208120601f198616915b82811015620005c0578886015182559484019460019091019084016200059f565b5085821015620005df5787850151600019600388901b60f8161c191681555b5050505050600190811b01905550565b60805160a05160c05160e0516101005161012051612e60620006bd600039600081816105db01528181610ed2015281816115bf0152818161167701528181611884015261193c01526000818161039c01528181610fd40152818161116e0152818161150d01528181611611015281816117d201526118d60152600081816104af0152818161159a015281816116550152818161185f015261191a015260006106b0015260008181610aa3015281816112ee0152818161207c0152612185015260006120520152612e606000f3fe6080604052600436106102285760003560e01c80638796ba8c11610123578063c83dd231116100ab578063f2fde38b1161006f578063f2fde38b14610730578063f70e97b714610750578063fa89401a14610766578063fc2a88c314610786578063fc7e286d1461079c57600080fd5b8063c83dd2311461069e578063c87b56dd146106d2578063cfbd900f146106f2578063d0e30db014610708578063e985e9c51461071057600080fd5b8063a035b1fe116100f2578063a035b1fe146105c9578063a168fa89146105fd578063a22cb46514610649578063b88d4fde14610669578063bd73f75f1461068957600080fd5b80638796ba8c146105465780638da5cb5b1461056657806395d89b41146105845780639d9ca28d1461059957600080fd5b806323b872dd116101b15780636120326511610175578063612032651461049d5780636352211e146104d157806370a08231146104f157806379ba5097146105115780637a8042bd1461052657600080fd5b806323b872dd1461040157806342842e0e146104215780635476d0de146104415780635600f04f1461046157806357970e931461047657600080fd5b8063095ea7b3116101f8578063095ea7b3146103475780630bdeecbd146103695780630c737add1461038a578063160344e2146103cc5780631fe543e3146103e157600080fd5b80620998541461027f57806301ffc9a7146102bd57806306fdde03146102ed578063081812fc1461030f57600080fd5b3661027a5760405162461bcd60e51b815260206004820152601b60248201527f446972656374207061796d656e7473206e6f7420616c6c6f776564000000000060448201526064015b60405180910390fd5b600080fd5b34801561028b57600080fd5b506014546102a390600160401b900463ffffffff1681565b60405163ffffffff90911681526020015b60405180910390f35b3480156102c957600080fd5b506102dd6102d836600461268c565b6107c9565b60405190151581526020016102b4565b3480156102f957600080fd5b506103026107da565b6040516102b491906126f9565b34801561031b57600080fd5b5061032f61032a36600461270c565b61086c565b6040516001600160a01b0390911681526020016102b4565b34801561035357600080fd5b50610367610362366004612741565b610895565b005b34801561037557600080fd5b506014546102dd90600160381b900460ff1681565b34801561039657600080fd5b506103be7f000000000000000000000000000000000000000000000000000000000000000081565b6040519081526020016102b4565b3480156103d857600080fd5b506103676108a4565b3480156103ed57600080fd5b506103676103fc3660046127b2565b610a98565b34801561040d57600080fd5b5061036761041c366004612864565b610b1a565b34801561042d57600080fd5b5061036761043c366004612864565b610ba5565b34801561044d57600080fd5b5061032f61045c36600461270c565b610bc5565b34801561046d57600080fd5b50610302610bef565b34801561048257600080fd5b5060145461032f90600160601b90046001600160a01b031681565b3480156104a957600080fd5b5061032f7f000000000000000000000000000000000000000000000000000000000000000081565b3480156104dd57600080fd5b5061032f6104ec36600461270c565b610c7d565b3480156104fd57600080fd5b506103be61050c3660046128a0565b610c88565b34801561051d57600080fd5b50610367610cd0565b34801561053257600080fd5b5061036761054136600461270c565b610d7e565b34801561055257600080fd5b506103be61056136600461270c565b610e42565b34801561057257600080fd5b506007546001600160a01b031661032f565b34801561059057600080fd5b50610302610e63565b3480156105a557600080fd5b506102dd6105b43660046128a0565b60176020526000908152604090205460ff1681565b3480156105d557600080fd5b506103be7f000000000000000000000000000000000000000000000000000000000000000081565b34801561060957600080fd5b5061063461061836600461270c565b6016602052600090815260409020805460019091015460ff1682565b604080519283529015156020830152016102b4565b34801561065557600080fd5b506103676106643660046128c9565b610e72565b34801561067557600080fd5b50610367610684366004612900565b610e7d565b34801561069557600080fd5b50610302610e94565b3480156106aa57600080fd5b5061032f7f000000000000000000000000000000000000000000000000000000000000000081565b3480156106de57600080fd5b506103026106ed36600461270c565b610ea1565b3480156106fe57600080fd5b506103be600e5481565b610367610eac565b34801561071c57600080fd5b506102dd61072b3660046129c0565b611032565b34801561073c57600080fd5b5061036761074b3660046128a0565b611060565b34801561075c57600080fd5b506103be600d5481565b34801561077257600080fd5b506103676107813660046128a0565b611071565b34801561079257600080fd5b506103be60135481565b3480156107a857600080fd5b506103be6107b73660046128a0565b60156020526000908152604090205481565b60006107d4826111cd565b92915050565b6060600080546107e9906129f3565b80601f0160208091040260200160405190810160405280929190818152602001828054610815906129f3565b80156108625780601f1061083757610100808354040283529160200191610862565b820191906000526020600020905b81548152906001019060200180831161084557829003601f168201915b5050505050905090565b6000610877826111f2565b506000828152600460205260409020546001600160a01b03166107d4565b6108a082823361122b565b5050565b6108ac611238565b600d5442116108fd5760405162461bcd60e51b815260206004820152601760248201527f4c6f7474657279206e6f742073746172746564207965740000000000000000006044820152606401610271565b6014546601000000000000900460ff161561095a5760405162461bcd60e51b815260206004820152601960248201527f4c6f74746572792068617320616c726561647920656e646564000000000000006044820152606401610271565b600f546109a95760405162461bcd60e51b815260206004820152601e60248201527f4e6f207061727469636970616e747320696e20746865206c6f747465727900006044820152606401610271565b6014546040516370a0823160e01b8152306004820152600091600160601b90046001600160a01b0316906370a0823190602401602060405180830381865afa1580156109f9573d6000803e3d6000fd5b505050506040513d601f19601f82011682018060405250810190610a1d9190612a2d565b9050670de0b6b3a7640000811015610a695760405162461bcd60e51b815260206004820152600f60248201526e4e6f7420656e6f756768204c494e4b60881b6044820152606401610271565b600e54600f541115610a8357610a7d611262565b50610a8b565b610a8b6114cd565b50610a966001600955565b565b336001600160a01b037f00000000000000000000000000000000000000000000000000000000000000001614610b105760405162461bcd60e51b815260206004820152601f60248201527f6f6e6c792056524620563220777261707065722063616e2066756c66696c6c006044820152606401610271565b6108a082826116df565b6001600160a01b038216610b4457604051633250574960e11b815260006004820152602401610271565b6000610b51838333611a07565b9050836001600160a01b0316816001600160a01b031614610b9f576040516364283d7b60e01b81526001600160a01b0380861660048301526024820184905282166044820152606401610271565b50505050565b610bc083838360405180602001604052806000815250610e7d565b505050565b600f8181548110610bd557600080fd5b6000918252602090912001546001600160a01b0316905081565b600c8054610bfc906129f3565b80601f0160208091040260200160405190810160405280929190818152602001828054610c28906129f3565b8015610c755780601f10610c4a57610100808354040283529160200191610c75565b820191906000526020600020905b815481529060010190602001808311610c5857829003601f168201915b505050505081565b60006107d4826111f2565b60006001600160a01b038216610cb4576040516322718ad960e21b815260006004820152602401610271565b506001600160a01b031660009081526003602052604090205490565b6008546001600160a01b03163314610d235760405162461bcd60e51b815260206004820152601660248201527526bab9ba10313290383937b837b9b2b21037bbb732b960511b6044820152606401610271565b600780546001600160a01b0319808216339081179093556008805490911690556040516001600160a01b03909116919082907f8be0079c531659141344cd1fd0a4f28419497f9722a3daafe3b4186f6b6457e090600090a350565b610d86611b00565b60145460405163a9059cbb60e01b815233600482015260248101839052600160601b9091046001600160a01b03169063a9059cbb906044016020604051808303816000875af1158015610ddd573d6000803e3d6000fd5b505050506040513d601f19601f82011682018060405250810190610e019190612a46565b610e3f5760405162461bcd60e51b815260206004820152600f60248201526e151c985b9cd9995c8819985a5b1959608a1b6044820152606401610271565b50565b60128181548110610e5257600080fd5b600091825260209091200154905081565b6060600180546107e9906129f3565b6108a0338383611b53565b610e88848484610b1a565b610b9f84848484611bf2565b600b8054610bfc906129f3565b60606107d482611d1b565b600d5480421115610ed057604051634cd29d0960e01b815260040160405180910390fd5b7f00000000000000000000000000000000000000000000000000000000000000003414610f3f5760405162461bcd60e51b815260206004820152601e60248201527f4465706f736974206d757374206265206571207469636b6574507269636500006044820152606401610271565b3360009081526015602052604090205415610f6d57604051634cbff32360e11b815260040160405180910390fd5b600f8054600181019091557f8d1108e10bcb7c27dddfc02ed9d693a074039d026cf4ea4240b40f7d581ac8020180546001600160a01b0319163390811790915560009081526015602052604081208054349290610fcb908490612a79565b925050819055507f00000000000000000000000000000000000000000000000000000000000000007f4d6ce4580c5dacbd2299d8ff3d4e3a3c48eb2d078d17a7e679e1078bb1769b74600b333460405161102793929190612b09565b60405180910390a250565b6001600160a01b03918216600090815260056020908152604080832093909416825291909152205460ff1690565b611068611b00565b610e3f81611e2c565b6001600160a01b038116600090815260156020526040902054806110ce5760405162461bcd60e51b8152602060048201526014602482015273139bc819195c1bdcda5d081d1bc81c99599d5b9960621b6044820152606401610271565b601454600160381b900460ff166111275760405162461bcd60e51b815260206004820152601a60248201527f546865206c6f747465727920697320696e2070726f67726573730000000000006044820152606401610271565b6001600160a01b0382166000818152601560205260408082208290555183156108fc0291849190818181858888f1935050505015801561116b573d6000803e3d6000fd5b507f00000000000000000000000000000000000000000000000000000000000000007f3ec87ffb561b22adf9a03fb21194f35302ad5744806919bd41cda5c63011b6ea600b84846040516111c193929190612b09565b60405180910390a25050565b60006001600160e01b03198216632483248360e11b14806107d457506107d482611ed6565b6000818152600260205260408120546001600160a01b0316806107d457604051637e27328960e01b815260048101849052602401610271565b610bc08383836001611f26565b60026009540361125b57604051633ee5aeb560e01b815260040160405180910390fd5b6002600955565b600080600a601460089054906101000a900463ffffffff1663ffffffff161161129a57601454600160401b900463ffffffff1661129d565b600a5b6014549091506112c19063ffffffff811690640100000000900461ffff168361202c565b6040805160608101918290526014546310c1b4d560e21b90925263ffffffff9091166064820152909250807f00000000000000000000000000000000000000000000000000000000000000006001600160a01b0316634306d35460848301602060405180830381865afa15801561133c573d6000803e3d6000fd5b505050506040513d601f19601f820116820180604052508101906113609190612a2d565b81526000602082015260408051600a80825261016082018352919092019190816020016020820280368337019050509052600083815260166020908152604091829020835181558382015160018201805460ff19169115159190911790559183015180516113d49260028501920190612616565b5050601280546001810182556000919091527fbb8a6a4669ba250d26cd7a459eca9d215f8307e33aebe50379bc5a3617ec34440183905550601382905560148054829190600890611433908490600160401b900463ffffffff16612b37565b92506101000a81548163ffffffff021916908363ffffffff160217905550601460089054906101000a900463ffffffff1663ffffffff1660000361148b576014805466ff000000000000191666010000000000001790555b6040805183815263ffffffff831660208201527f4461b2777889df5916f85d2cecf8eafcc1bb8f0ecee41ddca4b9497a07ad4c96910160405180910390a15090565b60005b600f548110156116c1576000600f82815481106114ef576114ef612b5b565b6000918252602090912001546040516001600160a01b0390911691507f0000000000000000000000000000000000000000000000000000000000000000907faab09bf34c5ca80680ba85d2bbc5ae2668156ed988ddf090b1b6300439be0e749061155d90600b908590612b71565b60405180910390a26001600160a01b0380821660009081526015602090815260408083208390556017909152808220805460ff19166001179055517f0000000000000000000000000000000000000000000000000000000000000000909216917f000000000000000000000000000000000000000000000000000000000000000080156108fc0292909190818181858888f19350505050158015611605573d6000803e3d6000fd5b5061160f81612205565b7f00000000000000000000000000000000000000000000000000000000000000007f55afc2b602fdf10b8b9c5ec43d0c93e0abf8d0486fe82aa9ec6d599591876610600b7f0000000000000000000000000000000000000000000000000000000000000000847f00000000000000000000000000000000000000000000000000000000000000006040516116a69493929190612b9b565b60405180910390a250806116b981612bd1565b9150506114d0565b506014805467ffff0000000000001916670101000000000000179055565b60008281526016602052604090205461172e5760405162461bcd60e51b815260206004820152601160248201527014995c5d595cdd081b9bdd08199bdd5b99607a1b6044820152606401610271565b60008281526016602090815260409091206001818101805460ff19169091179055825161176392600290920191840190612616565b50805160005b81811015611988576000600f8054905084838151811061178b5761178b612b5b565b602002602001015161179d9190612bea565b90506000600f82815481106117b4576117b4612b5b565b6000918252602090912001546040516001600160a01b0390911691507f0000000000000000000000000000000000000000000000000000000000000000907faab09bf34c5ca80680ba85d2bbc5ae2668156ed988ddf090b1b6300439be0e749061182290600b908590612b71565b60405180910390a26001600160a01b0380821660009081526015602090815260408083208390556017909152808220805460ff19166001179055517f0000000000000000000000000000000000000000000000000000000000000000909216917f000000000000000000000000000000000000000000000000000000000000000080156108fc0292909190818181858888f193505050501580156118ca573d6000803e3d6000fd5b506118d481612205565b7f00000000000000000000000000000000000000000000000000000000000000007f55afc2b602fdf10b8b9c5ec43d0c93e0abf8d0486fe82aa9ec6d599591876610600b7f0000000000000000000000000000000000000000000000000000000000000000847f000000000000000000000000000000000000000000000000000000000000000060405161196b9493929190612b9b565b60405180910390a25050808061198090612bd1565b915050611769565b50601454600160401b900463ffffffff166000036119b8576014805467ff000000000000001916600160381b1790555b600083815260166020526040908190205490517f85c29d2ad0f1a812f307411c654a2fbfdd3304c770203c84643b0a726f491eea916119fa9186918691612c0c565b60405180910390a1505050565b6000828152600260205260408120546001600160a01b0390811690831615611a3457611a348184866122ba565b6001600160a01b03811615611a7257611a51600085600080611f26565b6001600160a01b038116600090815260036020526040902080546000190190555b6001600160a01b03851615611aa1576001600160a01b0385166000908152600360205260409020805460010190555b60008481526002602052604080822080546001600160a01b0319166001600160a01b0389811691821790925591518793918516917fddf252ad1be2c89b69c2b068fc378daa952ba7f163c4a11628f55a4df523b3ef91a4949350505050565b6007546001600160a01b03163314610a965760405162461bcd60e51b815260206004820152601660248201527527b7363c9031b0b63630b1363290313c9037bbb732b960511b6044820152606401610271565b6001600160a01b038216611b8557604051630b61174360e31b81526001600160a01b0383166004820152602401610271565b6001600160a01b03838116600081815260056020908152604080832094871680845294825291829020805460ff191686151590811790915591519182527f17307eab39ab6107e8899845ad3d59bd9653f200f220920489ca2b5937696c31910160405180910390a3505050565b6001600160a01b0383163b15610b9f57604051630a85bd0160e11b81526001600160a01b0384169063150b7a0290611c34903390889087908790600401612c63565b6020604051808303816000875af1925050508015611c6f575060408051601f3d908101601f19168201909252611c6c91810190612ca0565b60015b611cd8573d808015611c9d576040519150601f19603f3d011682016040523d82523d6000602084013e611ca2565b606091505b508051600003611cd057604051633250574960e11b81526001600160a01b0385166004820152602401610271565b805181602001fd5b6001600160e01b03198116630a85bd0160e11b14611d1457604051633250574960e11b81526001600160a01b0385166004820152602401610271565b5050505050565b6060611d26826111f2565b5060008281526006602052604081208054611d40906129f3565b80601f0160208091040260200160405190810160405280929190818152602001828054611d6c906129f3565b8015611db95780601f10611d8e57610100808354040283529160200191611db9565b820191906000526020600020905b815481529060010190602001808311611d9c57829003601f168201915b505050505090506000611dd760408051602081019091526000815290565b90508051600003611de9575092915050565b815115611e1b578082604051602001611e03929190612cbd565b60405160208183030381529060405292505050919050565b611e248461231e565b949350505050565b336001600160a01b03821603611e845760405162461bcd60e51b815260206004820152601760248201527f43616e6e6f74207472616e7366657220746f2073656c660000000000000000006044820152606401610271565b600880546001600160a01b0319166001600160a01b03838116918217909255600754604051919216907fed8889f560326eb138920d842192f0eb3dd22b4f139c87a2c57538e05bae127890600090a350565b60006001600160e01b031982166380ac58cd60e01b1480611f0757506001600160e01b03198216635b5e139f60e01b145b806107d457506301ffc9a760e01b6001600160e01b03198316146107d4565b8080611f3a57506001600160a01b03821615155b15611ffc576000611f4a846111f2565b90506001600160a01b03831615801590611f765750826001600160a01b0316816001600160a01b031614155b8015611f895750611f878184611032565b155b15611fb25760405163a9fbf51f60e01b81526001600160a01b0384166004820152602401610271565b8115611ffa5783856001600160a01b0316826001600160a01b03167f8c5be1e5ebec7d5bd14f71427d1e84f3dd0314c0f7b2291e5b200ac8c7c3b92560405160405180910390a45b505b5050600090815260046020526040902080546001600160a01b0319166001600160a01b0392909216919091179055565b6040516310c1b4d560e21b815263ffffffff841660048201526000906001600160a01b037f0000000000000000000000000000000000000000000000000000000000000000811691634000aea0917f00000000000000000000000000000000000000000000000000000000000000009190821690634306d35490602401602060405180830381865afa1580156120c6573d6000803e3d6000fd5b505050506040513d601f19601f820116820180604052508101906120ea9190612a2d565b6040805163ffffffff808b16602083015261ffff8a169282019290925290871660608201526080016040516020818303038152906040526040518463ffffffff1660e01b815260040161213f93929190612cec565b6020604051808303816000875af115801561215e573d6000803e3d6000fd5b505050506040513d601f19601f820116820180604052508101906121829190612a46565b507f00000000000000000000000000000000000000000000000000000000000000006001600160a01b031663fc2a88c36040518163ffffffff1660e01b8152600401602060405180830381865afa1580156121e1573d6000803e3d6000fd5b505050506040513d601f19601f82011682018060405250810190611e249190612a2d565b600a80546000918261221683612bd1565b9190505590506122268282612393565b6108a081600c8054612237906129f3565b80601f0160208091040260200160405190810160405280929190818152602001828054612263906129f3565b80156122b05780601f10612285576101008083540402835291602001916122b0565b820191906000526020600020905b81548152906001019060200180831161229357829003601f168201915b50505050506123f8565b6122c5838383612448565b610bc0576001600160a01b0383166122f357604051637e27328960e01b815260048101829052602401610271565b60405163177e802f60e01b81526001600160a01b038316600482015260248101829052604401610271565b6060612329826111f2565b50600061234160408051602081019091526000815290565b90506000815111612361576040518060200160405280600081525061238c565b8061236b846124ab565b60405160200161237c929190612cbd565b6040516020818303038152906040525b9392505050565b6001600160a01b0382166123bd57604051633250574960e11b815260006004820152602401610271565b60006123cb83836000611a07565b90506001600160a01b03811615610bc0576040516339e3563760e11b815260006004820152602401610271565b60008281526006602052604090206124108282612d6a565b506040518281527ff8e1a15aba9398e019f0b49df1a4fde98ee17ae345cb5f6b5e2c27f5033e8ce79060200160405180910390a15050565b60006001600160a01b03831615801590611e245750826001600160a01b0316846001600160a01b0316148061248257506124828484611032565b80611e245750506000908152600460205260409020546001600160a01b03908116911614919050565b606060006124b88361253e565b600101905060008167ffffffffffffffff8111156124d8576124d861276b565b6040519080825280601f01601f191660200182016040528015612502576020820181803683370190505b5090508181016020015b600019016f181899199a1a9b1b9c1cb0b131b232b360811b600a86061a8153600a850494508461250c57509392505050565b60008072184f03e93ff9f4daa797ed6e38ed64bf6a1f0160401b831061257d5772184f03e93ff9f4daa797ed6e38ed64bf6a1f0160401b830492506040015b6d04ee2d6d415b85acef810000000083106125a9576d04ee2d6d415b85acef8100000000830492506020015b662386f26fc1000083106125c757662386f26fc10000830492506010015b6305f5e10083106125df576305f5e100830492506008015b61271083106125f357612710830492506004015b60648310612605576064830492506002015b600a83106107d45760010192915050565b828054828255906000526020600020908101928215612651579160200282015b82811115612651578251825591602001919060010190612636565b5061265d929150612661565b5090565b5b8082111561265d5760008155600101612662565b6001600160e01b031981168114610e3f57600080fd5b60006020828403121561269e57600080fd5b813561238c81612676565b60005b838110156126c45781810151838201526020016126ac565b50506000910152565b600081518084526126e58160208601602086016126a9565b601f01601f19169290920160200192915050565b60208152600061238c60208301846126cd565b60006020828403121561271e57600080fd5b5035919050565b80356001600160a01b038116811461273c57600080fd5b919050565b6000806040838503121561275457600080fd5b61275d83612725565b946020939093013593505050565b634e487b7160e01b600052604160045260246000fd5b604051601f8201601f1916810167ffffffffffffffff811182821017156127aa576127aa61276b565b604052919050565b600080604083850312156127c557600080fd5b8235915060208084013567ffffffffffffffff808211156127e557600080fd5b818601915086601f8301126127f957600080fd5b81358181111561280b5761280b61276b565b8060051b915061281c848301612781565b818152918301840191848101908984111561283657600080fd5b938501935b838510156128545784358252938501939085019061283b565b8096505050505050509250929050565b60008060006060848603121561287957600080fd5b61288284612725565b925061289060208501612725565b9150604084013590509250925092565b6000602082840312156128b257600080fd5b61238c82612725565b8015158114610e3f57600080fd5b600080604083850312156128dc57600080fd5b6128e583612725565b915060208301356128f5816128bb565b809150509250929050565b6000806000806080858703121561291657600080fd5b61291f85612725565b9350602061292e818701612725565b935060408601359250606086013567ffffffffffffffff8082111561295257600080fd5b818801915088601f83011261296657600080fd5b8135818111156129785761297861276b565b61298a601f8201601f19168501612781565b915080825289848285010111156129a057600080fd5b808484018584013760008482840101525080935050505092959194509250565b600080604083850312156129d357600080fd5b6129dc83612725565b91506129ea60208401612725565b90509250929050565b600181811c90821680612a0757607f821691505b602082108103612a2757634e487b7160e01b600052602260045260246000fd5b50919050565b600060208284031215612a3f57600080fd5b5051919050565b600060208284031215612a5857600080fd5b815161238c816128bb565b634e487b7160e01b600052601160045260246000fd5b808201808211156107d4576107d4612a63565b60008154612a99816129f3565b808552602060018381168015612ab65760018114612ad057612afe565b60ff1985168884015283151560051b880183019550612afe565b866000528260002060005b85811015612af65781548a8201860152908301908401612adb565b890184019650505b505050505092915050565b606081526000612b1c6060830186612a8c565b6001600160a01b039490941660208301525060400152919050565b63ffffffff828116828216039080821115612b5457612b54612a63565b5092915050565b634e487b7160e01b600052603260045260246000fd5b604081526000612b846040830185612a8c565b905060018060a01b03831660208301529392505050565b608081526000612bae6080830187612a8c565b6001600160a01b0395861660208401529390941660408201526060015292915050565b600060018201612be357612be3612a63565b5060010190565b600082612c0757634e487b7160e01b600052601260045260246000fd5b500690565b6000606082018583526020606081850152818651808452608086019150828801935060005b81811015612c4d57845183529383019391830191600101612c31565b5050809350505050826040830152949350505050565b6001600160a01b0385811682528416602082015260408101839052608060608201819052600090612c96908301846126cd565b9695505050505050565b600060208284031215612cb257600080fd5b815161238c81612676565b60008351612ccf8184602088016126a9565b835190830190612ce38183602088016126a9565b01949350505050565b60018060a01b0384168152826020820152606060408201526000612d1360608301846126cd565b95945050505050565b601f821115610bc057600081815260208120601f850160051c81016020861015612d435750805b601f850160051c820191505b81811015612d6257828155600101612d4f565b505050505050565b815167ffffffffffffffff811115612d8457612d8461276b565b612d9881612d9284546129f3565b84612d1c565b602080601f831160018114612dcd5760008415612db55750858301515b600019600386901b1c1916600185901b178555612d62565b600085815260208120601f198616915b82811015612dfc57888601518255948401946001909101908401612ddd565b5085821015612e1a5787850151600019600388901b60f8161c191681555b5050505050600190811b0190555056fea2646970667358221220256f8d8703c27f633ab55e16640e5727982a221431653b37e70172bf118cc2a764736f6c63430008140033a2646970667358221220c598116ba4b5b1506603372145740cd3166176976a9beb433fc11638b91f144964736f6c63430008140033","linkReferences":{}},"methodIdentifiers":{"allEscrows(uint256)":"1d3afee6","createEscrow(address,string,uint256,string,string,uint256,string,uint256,uint256)":"12f4a228","escrows(uint256)":"012f52ee","getEscrowAddressByTicketType(uint256)":"bb9faf66","isRegistered(address)":"c3c5a547"},"id":45}